{
  "_format": "hh3-artifact-1",
  "contractName": "FractionalOwnership",
  "sourceName": "contracts/FractionalOwnership.sol",
  "abi": [
    {
      "inputs": [],
      "stateMutability": "nonpayable",
      "type": "constructor"
    },
    {
      "inputs": [
        {
          "internalType": "address",
          "name": "owner",
          "type": "address"
        }
      ],
      "name": "OwnableInvalidOwner",
      "type": "error"
    },
    {
      "inputs": [
        {
          "internalType": "address",
          "name": "account",
          "type": "address"
        }
      ],
      "name": "OwnableUnauthorizedAccount",
      "type": "error"
    },
    {
      "anonymous": false,
      "inputs": [
        {
          "indexed": true,
          "internalType": "address",
          "name": "previousOwner",
          "type": "address"
        },
        {
          "indexed": true,
          "internalType": "address",
          "name": "newOwner",
          "type": "address"
        }
      ],
      "name": "OwnershipTransferred",
      "type": "event"
    },
    {
      "anonymous": false,
      "inputs": [
        {
          "indexed": true,
          "internalType": "uint256",
          "name": "propertyId",
          "type": "uint256"
        },
        {
          "indexed": false,
          "internalType": "string",
          "name": "location",
          "type": "string"
        },
        {
          "indexed": false,
          "internalType": "uint256",
          "name": "totalShares",
          "type": "uint256"
        },
        {
          "indexed": false,
          "internalType": "uint256",
          "name": "pricePerShare",
          "type": "uint256"
        },
        {
          "indexed": false,
          "internalType": "address",
          "name": "creator",
          "type": "address"
        }
      ],
      "name": "PropertyTokenized",
      "type": "event"
    },
    {
      "anonymous": false,
      "inputs": [
        {
          "indexed": true,
          "internalType": "uint256",
          "name": "propertyId",
          "type": "uint256"
        },
        {
          "indexed": true,
          "internalType": "address",
          "name": "buyer",
          "type": "address"
        },
        {
          "indexed": false,
          "internalType": "uint256",
          "name": "shares",
          "type": "uint256"
        },
        {
          "indexed": false,
          "internalType": "uint256",
          "name": "totalPaid",
          "type": "uint256"
        }
      ],
      "name": "SharesPurchased",
      "type": "event"
    },
    {
      "anonymous": false,
      "inputs": [
        {
          "indexed": true,
          "internalType": "uint256",
          "name": "propertyId",
          "type": "uint256"
        },
        {
          "indexed": true,
          "internalType": "address",
          "name": "from",
          "type": "address"
        },
        {
          "indexed": true,
          "internalType": "address",
          "name": "to",
          "type": "address"
        },
        {
          "indexed": false,
          "internalType": "uint256",
          "name": "shares",
          "type": "uint256"
        }
      ],
      "name": "SharesTransferred",
      "type": "event"
    },
    {
      "inputs": [
        {
          "internalType": "uint256",
          "name": "_propertyId",
          "type": "uint256"
        },
        {
          "internalType": "uint256",
          "name": "_shares",
          "type": "uint256"
        }
      ],
      "name": "buyShares",
      "outputs": [],
      "stateMutability": "payable",
      "type": "function"
    },
    {
      "inputs": [
        {
          "internalType": "uint256",
          "name": "",
          "type": "uint256"
        }
      ],
      "name": "fractionalProperties",
      "outputs": [
        {
          "internalType": "uint256",
          "name": "propertyId",
          "type": "uint256"
        },
        {
          "internalType": "string",
          "name": "location",
          "type": "string"
        },
        {
          "internalType": "uint256",
          "name": "totalShares",
          "type": "uint256"
        },
        {
          "internalType": "uint256",
          "name": "pricePerShare",
          "type": "uint256"
        },
        {
          "internalType": "address",
          "name": "creator",
          "type": "address"
        },
        {
          "internalType": "bool",
          "name": "isActive",
          "type": "bool"
        },
        {
          "internalType": "uint256",
          "name": "createdAt",
          "type": "uint256"
        }
      ],
      "stateMutability": "view",
      "type": "function"
    },
    {
      "inputs": [],
      "name": "getAllFractionalProperties",
      "outputs": [
        {
          "components": [
            {
              "internalType": "uint256",
              "name": "propertyId",
              "type": "uint256"
            },
            {
              "internalType": "string",
              "name": "location",
              "type": "string"
            },
            {
              "internalType": "uint256",
              "name": "totalShares",
              "type": "uint256"
            },
            {
              "internalType": "uint256",
              "name": "pricePerShare",
              "type": "uint256"
            },
            {
              "internalType": "address",
              "name": "creator",
              "type": "address"
            },
            {
              "internalType": "bool",
              "name": "isActive",
              "type": "bool"
            },
            {
              "internalType": "uint256",
              "name": "createdAt",
              "type": "uint256"
            }
          ],
          "internalType": "struct FractionalOwnership.FractionalProperty[]",
          "name": "",
          "type": "tuple[]"
        }
      ],
      "stateMutability": "view",
      "type": "function"
    },
    {
      "inputs": [
        {
          "internalType": "uint256",
          "name": "_propertyId",
          "type": "uint256"
        }
      ],
      "name": "getAvailableShares",
      "outputs": [
        {
          "internalType": "uint256",
          "name": "",
          "type": "uint256"
        }
      ],
      "stateMutability": "view",
      "type": "function"
    },
    {
      "inputs": [
        {
          "internalType": "uint256",
          "name": "_propertyId",
          "type": "uint256"
        },
        {
          "internalType": "address",
          "name": "_holder",
          "type": "address"
        }
      ],
      "name": "getMyShares",
      "outputs": [
        {
          "internalType": "uint256",
          "name": "",
          "type": "uint256"
        }
      ],
      "stateMutability": "view",
      "type": "function"
    },
    {
      "inputs": [
        {
          "internalType": "uint256",
          "name": "_propertyId",
          "type": "uint256"
        },
        {
          "internalType": "address",
          "name": "_holder",
          "type": "address"
        }
      ],
      "name": "getOwnershipPercent",
      "outputs": [
        {
          "internalType": "uint256",
          "name": "",
          "type": "uint256"
        }
      ],
      "stateMutability": "view",
      "type": "function"
    },
    {
      "inputs": [],
      "name": "owner",
      "outputs": [
        {
          "internalType": "address",
          "name": "",
          "type": "address"
        }
      ],
      "stateMutability": "view",
      "type": "function"
    },
    {
      "inputs": [],
      "name": "propertyCount",
      "outputs": [
        {
          "internalType": "uint256",
          "name": "",
          "type": "uint256"
        }
      ],
      "stateMutability": "view",
      "type": "function"
    },
    {
      "inputs": [],
      "name": "renounceOwnership",
      "outputs": [],
      "stateMutability": "nonpayable",
      "type": "function"
    },
    {
      "inputs": [
        {
          "internalType": "uint256",
          "name": "",
          "type": "uint256"
        },
        {
          "internalType": "address",
          "name": "",
          "type": "address"
        }
      ],
      "name": "sharesOwned",
      "outputs": [
        {
          "internalType": "uint256",
          "name": "",
          "type": "uint256"
        }
      ],
      "stateMutability": "view",
      "type": "function"
    },
    {
      "inputs": [
        {
          "internalType": "uint256",
          "name": "",
          "type": "uint256"
        }
      ],
      "name": "sharesSold",
      "outputs": [
        {
          "internalType": "uint256",
          "name": "",
          "type": "uint256"
        }
      ],
      "stateMutability": "view",
      "type": "function"
    },
    {
      "inputs": [
        {
          "internalType": "string",
          "name": "_location",
          "type": "string"
        },
        {
          "internalType": "uint256",
          "name": "_totalShares",
          "type": "uint256"
        },
        {
          "internalType": "uint256",
          "name": "_pricePerShareEther",
          "type": "uint256"
        }
      ],
      "name": "tokenizeProperty",
      "outputs": [
        {
          "internalType": "uint256",
          "name": "",
          "type": "uint256"
        }
      ],
      "stateMutability": "nonpayable",
      "type": "function"
    },
    {
      "inputs": [
        {
          "internalType": "address",
          "name": "newOwner",
          "type": "address"
        }
      ],
      "name": "transferOwnership",
      "outputs": [],
      "stateMutability": "nonpayable",
      "type": "function"
    },
    {
      "inputs": [
        {
          "internalType": "uint256",
          "name": "_propertyId",
          "type": "uint256"
        },
        {
          "internalType": "address",
          "name": "_to",
          "type": "address"
        },
        {
          "internalType": "uint256",
          "name": "_shares",
          "type": "uint256"
        }
      ],
      "name": "transferShares",
      "outputs": [],
      "stateMutability": "nonpayable",
      "type": "function"
    }
  ],
  "bytecode": "0x608060405234801561000f575f5ffd5b50335f73ffffffffffffffffffffffffffffffffffffffff168173ffffffffffffffffffffffffffffffffffffffff1603610081575f6040517f1e4fbdf70000000000000000000000000000000000000000000000000000000081526004016100789190610196565b60405180910390fd5b6100908161009660201b60201c565b506101af565b5f5f5f9054906101000a900473ffffffffffffffffffffffffffffffffffffffff169050815f5f6101000a81548173ffffffffffffffffffffffffffffffffffffffff021916908373ffffffffffffffffffffffffffffffffffffffff1602179055508173ffffffffffffffffffffffffffffffffffffffff168173ffffffffffffffffffffffffffffffffffffffff167f8be0079c531659141344cd1fd0a4f28419497f9722a3daafe3b4186f6b6457e060405160405180910390a35050565b5f73ffffffffffffffffffffffffffffffffffffffff82169050919050565b5f61018082610157565b9050919050565b61019081610176565b82525050565b5f6020820190506101a95f830184610187565b92915050565b612058806101bc5f395ff3fe6080604052600436106100dc575f3560e01c80638da5cb5b1161007e578063db70d47511610058578063db70d475146102c0578063dcd9d12d146102ea578063dfa15c8714610326578063f2fde38b14610362576100dc565b80638da5cb5b14610250578063beebc5da1461027a578063c361a33514610296576100dc565b80635ff85d31116100ba5780635ff85d311461019a578063715018a6146101d657806373e7800d146101ec57806384b9a6e614610228576100dc565b80631b9e26c9146100e05780632fb15aff1461011c57806355a24d3b1461015e575b5f5ffd5b3480156100eb575f5ffd5b506101066004803603810190610101919061120f565b61038a565b604051610113919061125c565b60405180910390f35b348015610127575f5ffd5b50610142600480360381019061013d9190611275565b6103aa565b6040516101559796959493929190611339565b60405180910390f35b348015610169575f5ffd5b50610184600480360381019061017f91906114d9565b61049a565b604051610191919061125c565b60405180910390f35b3480156101a5575f5ffd5b506101c060048036038101906101bb919061120f565b6106ae565b6040516101cd919061125c565b60405180910390f35b3480156101e1575f5ffd5b506101ea610749565b005b3480156101f7575f5ffd5b50610212600480360381019061020d9190611275565b61075c565b60405161021f919061125c565b60405180910390f35b348015610233575f5ffd5b5061024e60048036038101906102499190611545565b610771565b005b34801561025b575f5ffd5b5061026461099d565b6040516102719190611595565b60405180910390f35b610294600480360381019061028f91906115ae565b6109c4565b005b3480156102a1575f5ffd5b506102aa610cc3565b6040516102b7919061125c565b60405180910390f35b3480156102cb575f5ffd5b506102d4610cc9565b6040516102e191906117b5565b60405180910390f35b3480156102f5575f5ffd5b50610310600480360381019061030b9190611275565b610ebb565b60405161031d919061125c565b60405180910390f35b348015610331575f5ffd5b5061034c6004803603810190610347919061120f565b610ef9565b604051610359919061125c565b60405180910390f35b34801561036d575f5ffd5b50610388600480360381019061038391906117d5565b610f4f565b005b6003602052815f5260405f20602052805f5260405f205f91509150505481565b6002602052805f5260405f205f91509050805f0154908060010180546103cf9061182d565b80601f01602080910402602001604051908101604052809291908181526020018280546103fb9061182d565b80156104465780601f1061041d57610100808354040283529160200191610446565b820191905f5260205f20905b81548152906001019060200180831161042957829003601f168201915b505050505090806002015490806003015490806004015f9054906101000a900473ffffffffffffffffffffffffffffffffffffffff16908060040160149054906101000a900460ff16908060050154905087565b5f5f83116104dd576040517f08c379a00000000000000000000000000000000000000000000000000000000081526004016104d4906118a7565b60405180910390fd5b5f821161051f576040517f08c379a00000000000000000000000000000000000000000000000000000000081526004016105169061190f565b60405180910390fd5b60015f8154809291906105319061195a565b91905055506040518060e001604052806001548152602001858152602001848152602001670de0b6b3a76400008461056991906119a1565b81526020013373ffffffffffffffffffffffffffffffffffffffff1681526020016001151581526020014281525060025f60015481526020019081526020015f205f820151815f015560208201518160010190816105c79190611b82565b5060408201518160020155606082015181600301556080820151816004015f6101000a81548173ffffffffffffffffffffffffffffffffffffffff021916908373ffffffffffffffffffffffffffffffffffffffff16021790555060a08201518160040160146101000a81548160ff02191690831515021790555060c082015181600501559050506001547f854ea451fa75d4e0651d4f321b0e94ee8e91a415f1b6e2d03821d0964097ef648585670de0b6b3a76400008661068991906119a1565b3360405161069a9493929190611c51565b60405180910390a260015490509392505050565b5f5f60025f8581526020019081526020015f2090505f8160020154036106d7575f915050610743565b8060020154606460035f8781526020019081526020015f205f8673ffffffffffffffffffffffffffffffffffffffff1673ffffffffffffffffffffffffffffffffffffffff1681526020019081526020015f205461073591906119a1565b61073f9190611cc8565b9150505b92915050565b610751610fd3565b61075a5f61105a565b565b6004602052805f5260405f205f915090505481565b8060035f8581526020019081526020015f205f3373ffffffffffffffffffffffffffffffffffffffff1673ffffffffffffffffffffffffffffffffffffffff1681526020019081526020015f20541015610800576040517f08c379a00000000000000000000000000000000000000000000000000000000081526004016107f790611d42565b60405180910390fd5b5f73ffffffffffffffffffffffffffffffffffffffff168273ffffffffffffffffffffffffffffffffffffffff160361086e576040517f08c379a000000000000000000000000000000000000000000000000000000000815260040161086590611daa565b60405180910390fd5b8060035f8581526020019081526020015f205f3373ffffffffffffffffffffffffffffffffffffffff1673ffffffffffffffffffffffffffffffffffffffff1681526020019081526020015f205f8282546108c99190611dc8565b925050819055508060035f8581526020019081526020015f205f8473ffffffffffffffffffffffffffffffffffffffff1673ffffffffffffffffffffffffffffffffffffffff1681526020019081526020015f205f82825461092b9190611dfb565b925050819055508173ffffffffffffffffffffffffffffffffffffffff163373ffffffffffffffffffffffffffffffffffffffff16847f78dc4ab325d618a4100f0b44da2f25725cd94b780060f6b9e87065e9c0b12ebd84604051610990919061125c565b60405180910390a4505050565b5f5f5f9054906101000a900473ffffffffffffffffffffffffffffffffffffffff16905090565b5f60025f8481526020019081526020015f2090508060040160149054906101000a900460ff16610a29576040517f08c379a0000000000000000000000000000000000000000000000000000000008152600401610a2090611e78565b60405180910390fd5b5f8211610a6b576040517f08c379a0000000000000000000000000000000000000000000000000000000008152600401610a6290611ee0565b60405180910390fd5b80600201548260045f8681526020019081526020015f2054610a8d9190611dfb565b1115610ace576040517f08c379a0000000000000000000000000000000000000000000000000000000008152600401610ac590611f48565b60405180910390fd5b5f828260030154610adf91906119a1565b905080341015610b24576040517f08c379a0000000000000000000000000000000000000000000000000000000008152600401610b1b90611fb0565b60405180910390fd5b816004015f9054906101000a900473ffffffffffffffffffffffffffffffffffffffff1673ffffffffffffffffffffffffffffffffffffffff166108fc8290811502906040515f60405180830381858888f19350505050158015610b8a573d5f5f3e3d5ffd5b5080341115610be3573373ffffffffffffffffffffffffffffffffffffffff166108fc8234610bb99190611dc8565b90811502906040515f60405180830381858888f19350505050158015610be1573d5f5f3e3d5ffd5b505b8260035f8681526020019081526020015f205f3373ffffffffffffffffffffffffffffffffffffffff1673ffffffffffffffffffffffffffffffffffffffff1681526020019081526020015f205f828254610c3e9190611dfb565b925050819055508260045f8681526020019081526020015f205f828254610c659190611dfb565b925050819055503373ffffffffffffffffffffffffffffffffffffffff16847fce81571c08c76465bdf390ad1abe80af8c51c6c4566e3485f9395f13d5ad63288584604051610cb5929190611fce565b60405180910390a350505050565b60015481565b60605f60015467ffffffffffffffff811115610ce857610ce76113b5565b5b604051908082528060200260200182016040528015610d2157816020015b610d0e611122565b815260200190600190039081610d065790505b5090505f600190505b6001548111610eb35760025f8281526020019081526020015f206040518060e00160405290815f8201548152602001600182018054610d689061182d565b80601f0160208091040260200160405190810160405280929190818152602001828054610d949061182d565b8015610ddf5780601f10610db657610100808354040283529160200191610ddf565b820191905f5260205f20905b815481529060010190602001808311610dc257829003601f168201915b505050505081526020016002820154815260200160038201548152602001600482015f9054906101000a900473ffffffffffffffffffffffffffffffffffffffff1673ffffffffffffffffffffffffffffffffffffffff1673ffffffffffffffffffffffffffffffffffffffff1681526020016004820160149054906101000a900460ff1615151515815260200160058201548152505082600183610e849190611dc8565b81518110610e9557610e94611ff5565b5b60200260200101819052508080610eab9061195a565b915050610d2a565b508091505090565b5f5f60025f8481526020019081526020015f20905060045f8481526020019081526020015f20548160020154610ef19190611dc8565b915050919050565b5f60035f8481526020019081526020015f205f8373ffffffffffffffffffffffffffffffffffffffff1673ffffffffffffffffffffffffffffffffffffffff1681526020019081526020015f2054905092915050565b610f57610fd3565b5f73ffffffffffffffffffffffffffffffffffffffff168173ffffffffffffffffffffffffffffffffffffffff1603610fc7575f6040517f1e4fbdf7000000000000000000000000000000000000000000000000000000008152600401610fbe9190611595565b60405180910390fd5b610fd08161105a565b50565b610fdb61111b565b73ffffffffffffffffffffffffffffffffffffffff16610ff961099d565b73ffffffffffffffffffffffffffffffffffffffff16146110585761101c61111b565b6040517f118cdaa700000000000000000000000000000000000000000000000000000000815260040161104f9190611595565b60405180910390fd5b565b5f5f5f9054906101000a900473ffffffffffffffffffffffffffffffffffffffff169050815f5f6101000a81548173ffffffffffffffffffffffffffffffffffffffff021916908373ffffffffffffffffffffffffffffffffffffffff1602179055508173ffffffffffffffffffffffffffffffffffffffff168173ffffffffffffffffffffffffffffffffffffffff167f8be0079c531659141344cd1fd0a4f28419497f9722a3daafe3b4186f6b6457e060405160405180910390a35050565b5f33905090565b6040518060e001604052805f8152602001606081526020015f81526020015f81526020015f73ffffffffffffffffffffffffffffffffffffffff1681526020015f151581526020015f81525090565b5f604051905090565b5f5ffd5b5f5ffd5b5f819050919050565b61119481611182565b811461119e575f5ffd5b50565b5f813590506111af8161118b565b92915050565b5f73ffffffffffffffffffffffffffffffffffffffff82169050919050565b5f6111de826111b5565b9050919050565b6111ee816111d4565b81146111f8575f5ffd5b50565b5f81359050611209816111e5565b92915050565b5f5f604083850312156112255761122461117a565b5b5f611232858286016111a1565b9250506020611243858286016111fb565b9150509250929050565b61125681611182565b82525050565b5f60208201905061126f5f83018461124d565b92915050565b5f6020828403121561128a5761128961117a565b5b5f611297848285016111a1565b91505092915050565b5f81519050919050565b5f82825260208201905092915050565b8281835e5f83830152505050565b5f601f19601f8301169050919050565b5f6112e2826112a0565b6112ec81856112aa565b93506112fc8185602086016112ba565b611305816112c8565b840191505092915050565b611319816111d4565b82525050565b5f8115159050919050565b6113338161131f565b82525050565b5f60e08201905061134c5f83018a61124d565b818103602083015261135e81896112d8565b905061136d604083018861124d565b61137a606083018761124d565b6113876080830186611310565b61139460a083018561132a565b6113a160c083018461124d565b98975050505050505050565b5f5ffd5b5f5ffd5b7f4e487b71000000000000000000000000000000000000000000000000000000005f52604160045260245ffd5b6113eb826112c8565b810181811067ffffffffffffffff8211171561140a576114096113b5565b5b80604052505050565b5f61141c611171565b905061142882826113e2565b919050565b5f67ffffffffffffffff821115611447576114466113b5565b5b611450826112c8565b9050602081019050919050565b828183375f83830152505050565b5f61147d6114788461142d565b611413565b905082815260208101848484011115611499576114986113b1565b5b6114a484828561145d565b509392505050565b5f82601f8301126114c0576114bf6113ad565b5b81356114d084826020860161146b565b91505092915050565b5f5f5f606084860312156114f0576114ef61117a565b5b5f84013567ffffffffffffffff81111561150d5761150c61117e565b5b611519868287016114ac565b935050602061152a868287016111a1565b925050604061153b868287016111a1565b9150509250925092565b5f5f5f6060848603121561155c5761155b61117a565b5b5f611569868287016111a1565b935050602061157a868287016111fb565b925050604061158b868287016111a1565b9150509250925092565b5f6020820190506115a85f830184611310565b92915050565b5f5f604083850312156115c4576115c361117a565b5b5f6115d1858286016111a1565b92505060206115e2858286016111a1565b9150509250929050565b5f81519050919050565b5f82825260208201905092915050565b5f819050602082019050919050565b61161e81611182565b82525050565b5f82825260208201905092915050565b5f61163e826112a0565b6116488185611624565b93506116588185602086016112ba565b611661816112c8565b840191505092915050565b611675816111d4565b82525050565b6116848161131f565b82525050565b5f60e083015f83015161169f5f860182611615565b50602083015184820360208601526116b78282611634565b91505060408301516116cc6040860182611615565b5060608301516116df6060860182611615565b5060808301516116f2608086018261166c565b5060a083015161170560a086018261167b565b5060c083015161171860c0860182611615565b508091505092915050565b5f61172e838361168a565b905092915050565b5f602082019050919050565b5f61174c826115ec565b61175681856115f6565b93508360208202850161176885611606565b805f5b858110156117a357848403895281516117848582611723565b945061178f83611736565b925060208a0199505060018101905061176b565b50829750879550505050505092915050565b5f6020820190508181035f8301526117cd8184611742565b905092915050565b5f602082840312156117ea576117e961117a565b5b5f6117f7848285016111fb565b91505092915050565b7f4e487b71000000000000000000000000000000000000000000000000000000005f52602260045260245ffd5b5f600282049050600182168061184457607f821691505b60208210810361185757611856611800565b5b50919050565b7f536861726573206d757374206265203e203000000000000000000000000000005f82015250565b5f6118916012836112aa565b915061189c8261185d565b602082019050919050565b5f6020820190508181035f8301526118be81611885565b9050919050565b7f5072696365206d757374206265203e20300000000000000000000000000000005f82015250565b5f6118f96011836112aa565b9150611904826118c5565b602082019050919050565b5f6020820190508181035f830152611926816118ed565b9050919050565b7f4e487b71000000000000000000000000000000000000000000000000000000005f52601160045260245ffd5b5f61196482611182565b91507fffffffffffffffffffffffffffffffffffffffffffffffffffffffffffffffff82036119965761199561192d565b5b600182019050919050565b5f6119ab82611182565b91506119b683611182565b92508282026119c481611182565b915082820484148315176119db576119da61192d565b5b5092915050565b5f819050815f5260205f209050919050565b5f6020601f8301049050919050565b5f82821b905092915050565b5f60088302611a3e7fffffffffffffffffffffffffffffffffffffffffffffffffffffffffffffffff82611a03565b611a488683611a03565b95508019841693508086168417925050509392505050565b5f819050919050565b5f611a83611a7e611a7984611182565b611a60565b611182565b9050919050565b5f819050919050565b611a9c83611a69565b611ab0611aa882611a8a565b848454611a0f565b825550505050565b5f5f905090565b611ac7611ab8565b611ad2818484611a93565b505050565b5b81811015611af557611aea5f82611abf565b600181019050611ad8565b5050565b601f821115611b3a57611b0b816119e2565b611b14846119f4565b81016020851015611b23578190505b611b37611b2f856119f4565b830182611ad7565b50505b505050565b5f82821c905092915050565b5f611b5a5f1984600802611b3f565b1980831691505092915050565b5f611b728383611b4b565b9150826002028217905092915050565b611b8b826112a0565b67ffffffffffffffff811115611ba457611ba36113b5565b5b611bae825461182d565b611bb9828285611af9565b5f60209050601f831160018114611bea575f8415611bd8578287015190505b611be28582611b67565b865550611c49565b601f198416611bf8866119e2565b5f5b82811015611c1f57848901518255600182019150602085019450602081019050611bfa565b86831015611c3c5784890151611c38601f891682611b4b565b8355505b6001600288020188555050505b505050505050565b5f6080820190508181035f830152611c6981876112d8565b9050611c78602083018661124d565b611c85604083018561124d565b611c926060830184611310565b95945050505050565b7f4e487b71000000000000000000000000000000000000000000000000000000005f52601260045260245ffd5b5f611cd282611182565b9150611cdd83611182565b925082611ced57611cec611c9b565b5b828204905092915050565b7f4e6f7420656e6f756768207368617265730000000000000000000000000000005f82015250565b5f611d2c6011836112aa565b9150611d3782611cf8565b602082019050919050565b5f6020820190508181035f830152611d5981611d20565b9050919050565b7f496e76616c6964206164647265737300000000000000000000000000000000005f82015250565b5f611d94600f836112aa565b9150611d9f82611d60565b602082019050919050565b5f6020820190508181035f830152611dc181611d88565b9050919050565b5f611dd282611182565b9150611ddd83611182565b9250828203905081811115611df557611df461192d565b5b92915050565b5f611e0582611182565b9150611e1083611182565b9250828201905080821115611e2857611e2761192d565b5b92915050565b7f50726f7065727479206e6f7420616374697665000000000000000000000000005f82015250565b5f611e626013836112aa565b9150611e6d82611e2e565b602082019050919050565b5f6020820190508181035f830152611e8f81611e56565b9050919050565b7f4d75737420627579206174206c656173742031207368617265000000000000005f82015250565b5f611eca6019836112aa565b9150611ed582611e96565b602082019050919050565b5f6020820190508181035f830152611ef781611ebe565b9050919050565b7f4e6f7420656e6f7567682073686172657320617661696c61626c6500000000005f82015250565b5f611f32601b836112aa565b9150611f3d82611efe565b602082019050919050565b5f6020820190508181035f830152611f5f81611f26565b9050919050565b7f496e73756666696369656e74207061796d656e740000000000000000000000005f82015250565b5f611f9a6014836112aa565b9150611fa582611f66565b602082019050919050565b5f6020820190508181035f830152611fc781611f8e565b9050919050565b5f604082019050611fe15f83018561124d565b611fee602083018461124d565b9392505050565b7f4e487b71000000000000000000000000000000000000000000000000000000005f52603260045260245ffdfea26469706673582212200fd264fa5f4bddc900c0bd30bf611e092834a82f458b25620a89f4d40ecbd36a64736f6c634300081c0033",
  "linkReferences": {},
  "deployedLinkReferences": {},
  "immutableReferences": {},
  "inputSourceName": "project/contracts/FractionalOwnership.sol",
  "buildInfoId": "solc-0_8_28-9d8fca95ac0227ea6efa76497250f5b1922ba0be"
}