{
  "_format": "hh3-artifact-1",
  "contractName": "PropertyNFT",
  "sourceName": "contracts/PropertyNFT.sol",
  "abi": [
    {
      "inputs": [],
      "stateMutability": "nonpayable",
      "type": "constructor"
    },
    {
      "inputs": [
        {
          "internalType": "address",
          "name": "sender",
          "type": "address"
        },
        {
          "internalType": "uint256",
          "name": "tokenId",
          "type": "uint256"
        },
        {
          "internalType": "address",
          "name": "owner",
          "type": "address"
        }
      ],
      "name": "ERC721IncorrectOwner",
      "type": "error"
    },
    {
      "inputs": [
        {
          "internalType": "address",
          "name": "operator",
          "type": "address"
        },
        {
          "internalType": "uint256",
          "name": "tokenId",
          "type": "uint256"
        }
      ],
      "name": "ERC721InsufficientApproval",
      "type": "error"
    },
    {
      "inputs": [
        {
          "internalType": "address",
          "name": "approver",
          "type": "address"
        }
      ],
      "name": "ERC721InvalidApprover",
      "type": "error"
    },
    {
      "inputs": [
        {
          "internalType": "address",
          "name": "operator",
          "type": "address"
        }
      ],
      "name": "ERC721InvalidOperator",
      "type": "error"
    },
    {
      "inputs": [
        {
          "internalType": "address",
          "name": "owner",
          "type": "address"
        }
      ],
      "name": "ERC721InvalidOwner",
      "type": "error"
    },
    {
      "inputs": [
        {
          "internalType": "address",
          "name": "receiver",
          "type": "address"
        }
      ],
      "name": "ERC721InvalidReceiver",
      "type": "error"
    },
    {
      "inputs": [
        {
          "internalType": "address",
          "name": "sender",
          "type": "address"
        }
      ],
      "name": "ERC721InvalidSender",
      "type": "error"
    },
    {
      "inputs": [
        {
          "internalType": "uint256",
          "name": "tokenId",
          "type": "uint256"
        }
      ],
      "name": "ERC721NonexistentToken",
      "type": "error"
    },
    {
      "inputs": [
        {
          "internalType": "address",
          "name": "owner",
          "type": "address"
        }
      ],
      "name": "OwnableInvalidOwner",
      "type": "error"
    },
    {
      "inputs": [
        {
          "internalType": "address",
          "name": "account",
          "type": "address"
        }
      ],
      "name": "OwnableUnauthorizedAccount",
      "type": "error"
    },
    {
      "anonymous": false,
      "inputs": [
        {
          "indexed": true,
          "internalType": "address",
          "name": "owner",
          "type": "address"
        },
        {
          "indexed": true,
          "internalType": "address",
          "name": "approved",
          "type": "address"
        },
        {
          "indexed": true,
          "internalType": "uint256",
          "name": "tokenId",
          "type": "uint256"
        }
      ],
      "name": "Approval",
      "type": "event"
    },
    {
      "anonymous": false,
      "inputs": [
        {
          "indexed": true,
          "internalType": "address",
          "name": "owner",
          "type": "address"
        },
        {
          "indexed": true,
          "internalType": "address",
          "name": "operator",
          "type": "address"
        },
        {
          "indexed": false,
          "internalType": "bool",
          "name": "approved",
          "type": "bool"
        }
      ],
      "name": "ApprovalForAll",
      "type": "event"
    },
    {
      "anonymous": false,
      "inputs": [
        {
          "indexed": false,
          "internalType": "uint256",
          "name": "_fromTokenId",
          "type": "uint256"
        },
        {
          "indexed": false,
          "internalType": "uint256",
          "name": "_toTokenId",
          "type": "uint256"
        }
      ],
      "name": "BatchMetadataUpdate",
      "type": "event"
    },
    {
      "anonymous": false,
      "inputs": [
        {
          "indexed": false,
          "internalType": "uint256",
          "name": "_tokenId",
          "type": "uint256"
        }
      ],
      "name": "MetadataUpdate",
      "type": "event"
    },
    {
      "anonymous": false,
      "inputs": [
        {
          "indexed": true,
          "internalType": "address",
          "name": "previousOwner",
          "type": "address"
        },
        {
          "indexed": true,
          "internalType": "address",
          "name": "newOwner",
          "type": "address"
        }
      ],
      "name": "OwnershipTransferred",
      "type": "event"
    },
    {
      "anonymous": false,
      "inputs": [
        {
          "indexed": true,
          "internalType": "uint256",
          "name": "propertyId",
          "type": "uint256"
        },
        {
          "indexed": true,
          "internalType": "uint256",
          "name": "tokenId",
          "type": "uint256"
        },
        {
          "indexed": false,
          "internalType": "address",
          "name": "owner",
          "type": "address"
        }
      ],
      "name": "PropertyTokenized",
      "type": "event"
    },
    {
      "anonymous": false,
      "inputs": [
        {
          "indexed": true,
          "internalType": "address",
          "name": "from",
          "type": "address"
        },
        {
          "indexed": true,
          "internalType": "address",
          "name": "to",
          "type": "address"
        },
        {
          "indexed": true,
          "internalType": "uint256",
          "name": "tokenId",
          "type": "uint256"
        }
      ],
      "name": "Transfer",
      "type": "event"
    },
    {
      "inputs": [
        {
          "internalType": "address",
          "name": "to",
          "type": "address"
        },
        {
          "internalType": "uint256",
          "name": "tokenId",
          "type": "uint256"
        }
      ],
      "name": "approve",
      "outputs": [],
      "stateMutability": "nonpayable",
      "type": "function"
    },
    {
      "inputs": [
        {
          "internalType": "address",
          "name": "owner",
          "type": "address"
        }
      ],
      "name": "balanceOf",
      "outputs": [
        {
          "internalType": "uint256",
          "name": "",
          "type": "uint256"
        }
      ],
      "stateMutability": "view",
      "type": "function"
    },
    {
      "inputs": [
        {
          "internalType": "uint256",
          "name": "tokenId",
          "type": "uint256"
        }
      ],
      "name": "getApproved",
      "outputs": [
        {
          "internalType": "address",
          "name": "",
          "type": "address"
        }
      ],
      "stateMutability": "view",
      "type": "function"
    },
    {
      "inputs": [
        {
          "internalType": "address",
          "name": "owner",
          "type": "address"
        },
        {
          "internalType": "address",
          "name": "operator",
          "type": "address"
        }
      ],
      "name": "isApprovedForAll",
      "outputs": [
        {
          "internalType": "bool",
          "name": "",
          "type": "bool"
        }
      ],
      "stateMutability": "view",
      "type": "function"
    },
    {
      "inputs": [
        {
          "internalType": "address",
          "name": "_to",
          "type": "address"
        },
        {
          "internalType": "uint256",
          "name": "_propertyId",
          "type": "uint256"
        },
        {
          "internalType": "string",
          "name": "_tokenURI",
          "type": "string"
        }
      ],
      "name": "mintPropertyNFT",
      "outputs": [
        {
          "internalType": "uint256",
          "name": "",
          "type": "uint256"
        }
      ],
      "stateMutability": "nonpayable",
      "type": "function"
    },
    {
      "inputs": [],
      "name": "name",
      "outputs": [
        {
          "internalType": "string",
          "name": "",
          "type": "string"
        }
      ],
      "stateMutability": "view",
      "type": "function"
    },
    {
      "inputs": [],
      "name": "owner",
      "outputs": [
        {
          "internalType": "address",
          "name": "",
          "type": "address"
        }
      ],
      "stateMutability": "view",
      "type": "function"
    },
    {
      "inputs": [
        {
          "internalType": "uint256",
          "name": "tokenId",
          "type": "uint256"
        }
      ],
      "name": "ownerOf",
      "outputs": [
        {
          "internalType": "address",
          "name": "",
          "type": "address"
        }
      ],
      "stateMutability": "view",
      "type": "function"
    },
    {
      "inputs": [
        {
          "internalType": "uint256",
          "name": "",
          "type": "uint256"
        }
      ],
      "name": "propertyToToken",
      "outputs": [
        {
          "internalType": "uint256",
          "name": "",
          "type": "uint256"
        }
      ],
      "stateMutability": "view",
      "type": "function"
    },
    {
      "inputs": [],
      "name": "renounceOwnership",
      "outputs": [],
      "stateMutability": "nonpayable",
      "type": "function"
    },
    {
      "inputs": [
        {
          "internalType": "address",
          "name": "from",
          "type": "address"
        },
        {
          "internalType": "address",
          "name": "to",
          "type": "address"
        },
        {
          "internalType": "uint256",
          "name": "tokenId",
          "type": "uint256"
        }
      ],
      "name": "safeTransferFrom",
      "outputs": [],
      "stateMutability": "nonpayable",
      "type": "function"
    },
    {
      "inputs": [
        {
          "internalType": "address",
          "name": "from",
          "type": "address"
        },
        {
          "internalType": "address",
          "name": "to",
          "type": "address"
        },
        {
          "internalType": "uint256",
          "name": "tokenId",
          "type": "uint256"
        },
        {
          "internalType": "bytes",
          "name": "data",
          "type": "bytes"
        }
      ],
      "name": "safeTransferFrom",
      "outputs": [],
      "stateMutability": "nonpayable",
      "type": "function"
    },
    {
      "inputs": [
        {
          "internalType": "address",
          "name": "operator",
          "type": "address"
        },
        {
          "internalType": "bool",
          "name": "approved",
          "type": "bool"
        }
      ],
      "name": "setApprovalForAll",
      "outputs": [],
      "stateMutability": "nonpayable",
      "type": "function"
    },
    {
      "inputs": [
        {
          "internalType": "bytes4",
          "name": "interfaceId",
          "type": "bytes4"
        }
      ],
      "name": "supportsInterface",
      "outputs": [
        {
          "internalType": "bool",
          "name": "",
          "type": "bool"
        }
      ],
      "stateMutability": "view",
      "type": "function"
    },
    {
      "inputs": [],
      "name": "symbol",
      "outputs": [
        {
          "internalType": "string",
          "name": "",
          "type": "string"
        }
      ],
      "stateMutability": "view",
      "type": "function"
    },
    {
      "inputs": [
        {
          "internalType": "uint256",
          "name": "",
          "type": "uint256"
        }
      ],
      "name": "tokenToProperty",
      "outputs": [
        {
          "internalType": "uint256",
          "name": "",
          "type": "uint256"
        }
      ],
      "stateMutability": "view",
      "type": "function"
    },
    {
      "inputs": [
        {
          "internalType": "uint256",
          "name": "tokenId",
          "type": "uint256"
        }
      ],
      "name": "tokenURI",
      "outputs": [
        {
          "internalType": "string",
          "name": "",
          "type": "string"
        }
      ],
      "stateMutability": "view",
      "type": "function"
    },
    {
      "inputs": [],
      "name": "totalSupply",
      "outputs": [
        {
          "internalType": "uint256",
          "name": "",
          "type": "uint256"
        }
      ],
      "stateMutability": "view",
      "type": "function"
    },
    {
      "inputs": [
        {
          "internalType": "address",
          "name": "from",
          "type": "address"
        },
        {
          "internalType": "address",
          "name": "to",
          "type": "address"
        },
        {
          "internalType": "uint256",
          "name": "tokenId",
          "type": "uint256"
        }
      ],
      "name": "transferFrom",
      "outputs": [],
      "stateMutability": "nonpayable",
      "type": "function"
    },
    {
      "inputs": [
        {
          "internalType": "address",
          "name": "newOwner",
          "type": "address"
        }
      ],
      "name": "transferOwnership",
      "outputs": [],
      "stateMutability": "nonpayable",
      "type": "function"
    }
  ],
  "bytecode": "0x608060405234801561000f575f5ffd5b50336040518060400160405280600e81526020017f5265616c457374617465204e46540000000000000000000000000000000000008152506040518060400160405280600581526020017f52454e4654000000000000000000000000000000000000000000000000000000815250815f908161008b9190610423565b50806001908161009b9190610423565b5050505f73ffffffffffffffffffffffffffffffffffffffff168173ffffffffffffffffffffffffffffffffffffffff160361010e575f6040517f1e4fbdf70000000000000000000000000000000000000000000000000000000081526004016101059190610531565b60405180910390fd5b61011d8161012360201b60201c565b5061054a565b5f60075f9054906101000a900473ffffffffffffffffffffffffffffffffffffffff1690508160075f6101000a81548173ffffffffffffffffffffffffffffffffffffffff021916908373ffffffffffffffffffffffffffffffffffffffff1602179055508173ffffffffffffffffffffffffffffffffffffffff168173ffffffffffffffffffffffffffffffffffffffff167f8be0079c531659141344cd1fd0a4f28419497f9722a3daafe3b4186f6b6457e060405160405180910390a35050565b5f81519050919050565b7f4e487b71000000000000000000000000000000000000000000000000000000005f52604160045260245ffd5b7f4e487b71000000000000000000000000000000000000000000000000000000005f52602260045260245ffd5b5f600282049050600182168061026157607f821691505b6020821081036102745761027361021d565b5b50919050565b5f819050815f5260205f209050919050565b5f6020601f8301049050919050565b5f82821b905092915050565b5f600883026102d67fffffffffffffffffffffffffffffffffffffffffffffffffffffffffffffffff8261029b565b6102e0868361029b565b95508019841693508086168417925050509392505050565b5f819050919050565b5f819050919050565b5f61032461031f61031a846102f8565b610301565b6102f8565b9050919050565b5f819050919050565b61033d8361030a565b6103516103498261032b565b8484546102a7565b825550505050565b5f5f905090565b610368610359565b610373818484610334565b505050565b5b818110156103965761038b5f82610360565b600181019050610379565b5050565b601f8211156103db576103ac8161027a565b6103b58461028c565b810160208510156103c4578190505b6103d86103d08561028c565b830182610378565b50505b505050565b5f82821c905092915050565b5f6103fb5f19846008026103e0565b1980831691505092915050565b5f61041383836103ec565b9150826002028217905092915050565b61042c826101e6565b67ffffffffffffffff811115610445576104446101f0565b5b61044f825461024a565b61045a82828561039a565b5f60209050601f83116001811461048b575f8415610479578287015190505b6104838582610408565b8655506104ea565b601f1984166104998661027a565b5f5b828110156104c05784890151825560018201915060208501945060208101905061049b565b868310156104dd57848901516104d9601f8916826103ec565b8355505b6001600288020188555050505b505050505050565b5f73ffffffffffffffffffffffffffffffffffffffff82169050919050565b5f61051b826104f2565b9050919050565b61052b81610511565b82525050565b5f6020820190506105445f830184610522565b92915050565b612762806105575f395ff3fe608060405234801561000f575f5ffd5b506004361061012a575f3560e01c80636352211e116100ab578063a22cb4651161006f578063a22cb46514610354578063b88d4fde14610370578063c87b56dd1461038c578063e985e9c5146103bc578063f2fde38b146103ec5761012a565b80636352211e146102ae57806370a08231146102de578063715018a61461030e5780638da5cb5b1461031857806395d89b41146103365761012a565b806318160ddd116100f257806318160ddd146101f85780632151da271461021657806323b872dd1461024657806342842e0e1461026257806347c7c5401461027e5761012a565b8063010774721461012e57806301ffc9a71461015e57806306fdde031461018e578063081812fc146101ac578063095ea7b3146101dc575b5f5ffd5b61014860048036038101906101439190611bfe565b610408565b6040516101559190611c38565b60405180910390f35b61017860048036038101906101739190611ca6565b61041d565b6040516101859190611ceb565b60405180910390f35b61019661047d565b6040516101a39190611d74565b60405180910390f35b6101c660048036038101906101c19190611bfe565b61050c565b6040516101d39190611dd3565b60405180910390f35b6101f660048036038101906101f19190611e16565b610527565b005b61020061053d565b60405161020d9190611c38565b60405180910390f35b610230600480360381019061022b9190611f80565b610546565b60405161023d9190611c38565b60405180910390f35b610260600480360381019061025b9190611fec565b6105f0565b005b61027c60048036038101906102779190611fec565b6106ef565b005b61029860048036038101906102939190611bfe565b61070e565b6040516102a59190611c38565b60405180910390f35b6102c860048036038101906102c39190611bfe565b610723565b6040516102d59190611dd3565b60405180910390f35b6102f860048036038101906102f3919061203c565b610734565b6040516103059190611c38565b60405180910390f35b6103166107ea565b005b6103206107fd565b60405161032d9190611dd3565b60405180910390f35b61033e610825565b60405161034b9190611d74565b60405180910390f35b61036e60048036038101906103699190612091565b6108b5565b005b61038a6004803603810190610385919061216d565b6108cb565b005b6103a660048036038101906103a19190611bfe565b6108f0565b6040516103b39190611d74565b60405180910390f35b6103d660048036038101906103d191906121ed565b61096c565b6040516103e39190611ceb565b60405180910390f35b6104066004803603810190610401919061203c565b6109fa565b005b6009602052805f5260405f205f915090505481565b5f634906490660e01b7bffffffffffffffffffffffffffffffffffffffffffffffffffffffff1916827bffffffffffffffffffffffffffffffffffffffffffffffffffffffff19161480610476575061047582610a7e565b5b9050919050565b60605f805461048b90612258565b80601f01602080910402602001604051908101604052809291908181526020018280546104b790612258565b80156105025780601f106104d957610100808354040283529160200191610502565b820191905f5260205f20905b8154815290600101906020018083116104e557829003601f168201915b5050505050905090565b5f61051682610b5f565b5061052082610be5565b9050919050565b6105398282610534610c1e565b610c25565b5050565b5f600854905090565b5f61054f610c37565b60085f815480929190610561906122b5565b91905055505f60085490506105768582610cbe565b6105808184610cdb565b8060095f8681526020019081526020015f208190555083600a5f8381526020019081526020015f208190555080847fa10aea30cb750071da8d0e7e583ae13911260230fa69df3edb9f3704f598dd56876040516105dd9190611dd3565b60405180910390a3809150509392505050565b5f73ffffffffffffffffffffffffffffffffffffffff168273ffffffffffffffffffffffffffffffffffffffff1603610660575f6040517f64a0ae920000000000000000000000000000000000000000000000000000000081526004016106579190611dd3565b60405180910390fd5b5f610673838361066e610c1e565b610d35565b90508373ffffffffffffffffffffffffffffffffffffffff168173ffffffffffffffffffffffffffffffffffffffff16146106e9578382826040517f64283d7b0000000000000000000000000000000000000000000000000000000081526004016106e0939291906122fc565b60405180910390fd5b50505050565b61070983838360405180602001604052805f8152506108cb565b505050565b600a602052805f5260405f205f915090505481565b5f61072d82610b5f565b9050919050565b5f5f73ffffffffffffffffffffffffffffffffffffffff168273ffffffffffffffffffffffffffffffffffffffff16036107a5575f6040517f89c62b6400000000000000000000000000000000000000000000000000000000815260040161079c9190611dd3565b60405180910390fd5b60035f8373ffffffffffffffffffffffffffffffffffffffff1673ffffffffffffffffffffffffffffffffffffffff1681526020019081526020015f20549050919050565b6107f2610c37565b6107fb5f610f40565b565b5f60075f9054906101000a900473ffffffffffffffffffffffffffffffffffffffff16905090565b60606001805461083490612258565b80601f016020809104026020016040519081016040528092919081815260200182805461086090612258565b80156108ab5780601f10610882576101008083540402835291602001916108ab565b820191905f5260205f20905b81548152906001019060200180831161088e57829003601f168201915b5050505050905090565b6108c76108c0610c1e565b8383611003565b5050565b6108d68484846105f0565b6108ea6108e1610c1e565b858585856111dc565b50505050565b60606108fb82610b5f565b505f610905611388565b90505f6109118461139e565b90505f825103610925578092505050610967565b5f8151111561095957818160405160200161094192919061236b565b60405160208183030381529060405292505050610967565b6109628461143f565b925050505b919050565b5f60055f8473ffffffffffffffffffffffffffffffffffffffff1673ffffffffffffffffffffffffffffffffffffffff1681526020019081526020015f205f8373ffffffffffffffffffffffffffffffffffffffff1673ffffffffffffffffffffffffffffffffffffffff1681526020019081526020015f205f9054906101000a900460ff16905092915050565b610a02610c37565b5f73ffffffffffffffffffffffffffffffffffffffff168173ffffffffffffffffffffffffffffffffffffffff1603610a72575f6040517f1e4fbdf7000000000000000000000000000000000000000000000000000000008152600401610a699190611dd3565b60405180910390fd5b610a7b81610f40565b50565b5f7f80ac58cd000000000000000000000000000000000000000000000000000000007bffffffffffffffffffffffffffffffffffffffffffffffffffffffff1916827bffffffffffffffffffffffffffffffffffffffffffffffffffffffff19161480610b4857507f5b5e139f000000000000000000000000000000000000000000000000000000007bffffffffffffffffffffffffffffffffffffffffffffffffffffffff1916827bffffffffffffffffffffffffffffffffffffffffffffffffffffffff1916145b80610b585750610b57826114a5565b5b9050919050565b5f5f610b6a8361150e565b90505f73ffffffffffffffffffffffffffffffffffffffff168173ffffffffffffffffffffffffffffffffffffffff1603610bdc57826040517f7e273289000000000000000000000000000000000000000000000000000000008152600401610bd39190611c38565b60405180910390fd5b80915050919050565b5f60045f8381526020019081526020015f205f9054906101000a900473ffffffffffffffffffffffffffffffffffffffff169050919050565b5f33905090565b610c328383836001611547565b505050565b610c3f610c1e565b73ffffffffffffffffffffffffffffffffffffffff16610c5d6107fd565b73ffffffffffffffffffffffffffffffffffffffff1614610cbc57610c80610c1e565b6040517f118cdaa7000000000000000000000000000000000000000000000000000000008152600401610cb39190611dd3565b60405180910390fd5b565b610cd7828260405180602001604052805f815250611706565b5050565b8060065f8481526020019081526020015f209081610cf9919061252e565b507ff8e1a15aba9398e019f0b49df1a4fde98ee17ae345cb5f6b5e2c27f5033e8ce782604051610d299190611c38565b60405180910390a15050565b5f5f610d408461150e565b90505f73ffffffffffffffffffffffffffffffffffffffff168373ffffffffffffffffffffffffffffffffffffffff1614610d8157610d80818486611729565b5b5f73ffffffffffffffffffffffffffffffffffffffff168173ffffffffffffffffffffffffffffffffffffffff1614610e0c57610dc05f855f5f611547565b600160035f8373ffffffffffffffffffffffffffffffffffffffff1673ffffffffffffffffffffffffffffffffffffffff1681526020019081526020015f205f82825403925050819055505b5f73ffffffffffffffffffffffffffffffffffffffff168573ffffffffffffffffffffffffffffffffffffffff1614610e8b57600160035f8773ffffffffffffffffffffffffffffffffffffffff1673ffffffffffffffffffffffffffffffffffffffff1681526020019081526020015f205f82825401925050819055505b8460025f8681526020019081526020015f205f6101000a81548173ffffffffffffffffffffffffffffffffffffffff021916908373ffffffffffffffffffffffffffffffffffffffff160217905550838573ffffffffffffffffffffffffffffffffffffffff168273ffffffffffffffffffffffffffffffffffffffff167fddf252ad1be2c89b69c2b068fc378daa952ba7f163c4a11628f55a4df523b3ef60405160405180910390a4809150509392505050565b5f60075f9054906101000a900473ffffffffffffffffffffffffffffffffffffffff1690508160075f6101000a81548173ffffffffffffffffffffffffffffffffffffffff021916908373ffffffffffffffffffffffffffffffffffffffff1602179055508173ffffffffffffffffffffffffffffffffffffffff168173ffffffffffffffffffffffffffffffffffffffff167f8be0079c531659141344cd1fd0a4f28419497f9722a3daafe3b4186f6b6457e060405160405180910390a35050565b5f73ffffffffffffffffffffffffffffffffffffffff168373ffffffffffffffffffffffffffffffffffffffff1603611073575f6040517fa9fbf51f00000000000000000000000000000000000000000000000000000000815260040161106a9190611dd3565b60405180910390fd5b5f73ffffffffffffffffffffffffffffffffffffffff168273ffffffffffffffffffffffffffffffffffffffff16036110e357816040517f5b08ba180000000000000000000000000000000000000000000000000000000081526004016110da9190611dd3565b60405180910390fd5b8060055f8573ffffffffffffffffffffffffffffffffffffffff1673ffffffffffffffffffffffffffffffffffffffff1681526020019081526020015f205f8473ffffffffffffffffffffffffffffffffffffffff1673ffffffffffffffffffffffffffffffffffffffff1681526020019081526020015f205f6101000a81548160ff0219169083151502179055508173ffffffffffffffffffffffffffffffffffffffff168373ffffffffffffffffffffffffffffffffffffffff167f17307eab39ab6107e8899845ad3d59bd9653f200f220920489ca2b5937696c31836040516111cf9190611ceb565b60405180910390a3505050565b5f8373ffffffffffffffffffffffffffffffffffffffff163b1115611381578273ffffffffffffffffffffffffffffffffffffffff1663150b7a02868685856040518563ffffffff1660e01b815260040161123a949392919061264f565b6020604051808303815f875af192505050801561127557506040513d601f19601f8201168201806040525081019061127291906126ad565b60015b6112f6573d805f81146112a3576040519150601f19603f3d011682016040523d82523d5f602084013e6112a8565b606091505b505f8151036112ee57836040517f64a0ae920000000000000000000000000000000000000000000000000000000081526004016112e59190611dd3565b60405180910390fd5b805160208201fd5b63150b7a0260e01b7bffffffffffffffffffffffffffffffffffffffffffffffffffffffff1916817bffffffffffffffffffffffffffffffffffffffffffffffffffffffff19161461137f57836040517f64a0ae920000000000000000000000000000000000000000000000000000000081526004016113769190611dd3565b60405180910390fd5b505b5050505050565b606060405180602001604052805f815250905090565b606060065f8381526020019081526020015f2080546113bc90612258565b80601f01602080910402602001604051908101604052809291908181526020018280546113e890612258565b80156114335780601f1061140a57610100808354040283529160200191611433565b820191905f5260205f20905b81548152906001019060200180831161141657829003601f168201915b50505050509050919050565b606061144a82610b5f565b505f611454611388565b90505f8151116114725760405180602001604052805f81525061149d565b8061147c846117ec565b60405160200161148d92919061236b565b6040516020818303038152906040525b915050919050565b5f7f01ffc9a7000000000000000000000000000000000000000000000000000000007bffffffffffffffffffffffffffffffffffffffffffffffffffffffff1916827bffffffffffffffffffffffffffffffffffffffffffffffffffffffff1916149050919050565b5f60025f8381526020019081526020015f205f9054906101000a900473ffffffffffffffffffffffffffffffffffffffff169050919050565b808061157f57505f73ffffffffffffffffffffffffffffffffffffffff168273ffffffffffffffffffffffffffffffffffffffff1614155b156116b1575f61158e84610b5f565b90505f73ffffffffffffffffffffffffffffffffffffffff168373ffffffffffffffffffffffffffffffffffffffff16141580156115f857508273ffffffffffffffffffffffffffffffffffffffff168173ffffffffffffffffffffffffffffffffffffffff1614155b801561160b5750611609818461096c565b155b1561164d57826040517fa9fbf51f0000000000000000000000000000000000000000000000000000000081526004016116449190611dd3565b60405180910390fd5b81156116af57838573ffffffffffffffffffffffffffffffffffffffff168273ffffffffffffffffffffffffffffffffffffffff167f8c5be1e5ebec7d5bd14f71427d1e84f3dd0314c0f7b2291e5b200ac8c7c3b92560405160405180910390a45b505b8360045f8581526020019081526020015f205f6101000a81548173ffffffffffffffffffffffffffffffffffffffff021916908373ffffffffffffffffffffffffffffffffffffffff16021790555050505050565b61171083836118b6565b61172461171b610c1e565b5f8585856111dc565b505050565b6117348383836119a9565b6117e7575f73ffffffffffffffffffffffffffffffffffffffff168373ffffffffffffffffffffffffffffffffffffffff16036117a857806040517f7e27328900000000000000000000000000000000000000000000000000000000815260040161179f9190611c38565b60405180910390fd5b81816040517f177e802f0000000000000000000000000000000000000000000000000000000081526004016117de9291906126d8565b60405180910390fd5b505050565b60605f60016117fa84611a69565b0190505f8167ffffffffffffffff81111561181857611817611e5c565b5b6040519080825280601f01601f19166020018201604052801561184a5781602001600182028036833780820191505090505b5090505f82602083010190505b6001156118ab578080600190039150507f3031323334353637383961626364656600000000000000000000000000000000600a86061a8153600a85816118a05761189f6126ff565b5b0494505f8503611857575b819350505050919050565b5f73ffffffffffffffffffffffffffffffffffffffff168273ffffffffffffffffffffffffffffffffffffffff1603611926575f6040517f64a0ae9200000000000000000000000000000000000000000000000000000000815260040161191d9190611dd3565b60405180910390fd5b5f61193283835f610d35565b90505f73ffffffffffffffffffffffffffffffffffffffff168173ffffffffffffffffffffffffffffffffffffffff16146119a4575f6040517f73c6ac6e00000000000000000000000000000000000000000000000000000000815260040161199b9190611dd3565b60405180910390fd5b505050565b5f5f73ffffffffffffffffffffffffffffffffffffffff168373ffffffffffffffffffffffffffffffffffffffff1614158015611a6057508273ffffffffffffffffffffffffffffffffffffffff168473ffffffffffffffffffffffffffffffffffffffff161480611a215750611a20848461096c565b5b80611a5f57508273ffffffffffffffffffffffffffffffffffffffff16611a4783610be5565b73ffffffffffffffffffffffffffffffffffffffff16145b5b90509392505050565b5f5f5f90507a184f03e93ff9f4daa797ed6e38ed64bf6a1f0100000000000000008310611ac5577a184f03e93ff9f4daa797ed6e38ed64bf6a1f0100000000000000008381611abb57611aba6126ff565b5b0492506040810190505b6d04ee2d6d415b85acef81000000008310611b02576d04ee2d6d415b85acef81000000008381611af857611af76126ff565b5b0492506020810190505b662386f26fc100008310611b3157662386f26fc100008381611b2757611b266126ff565b5b0492506010810190505b6305f5e1008310611b5a576305f5e1008381611b5057611b4f6126ff565b5b0492506008810190505b6127108310611b7f576127108381611b7557611b746126ff565b5b0492506004810190505b60648310611ba25760648381611b9857611b976126ff565b5b0492506002810190505b600a8310611bb1576001810190505b80915050919050565b5f604051905090565b5f5ffd5b5f5ffd5b5f819050919050565b611bdd81611bcb565b8114611be7575f5ffd5b50565b5f81359050611bf881611bd4565b92915050565b5f60208284031215611c1357611c12611bc3565b5b5f611c2084828501611bea565b91505092915050565b611c3281611bcb565b82525050565b5f602082019050611c4b5f830184611c29565b92915050565b5f7fffffffff0000000000000000000000000000000000000000000000000000000082169050919050565b611c8581611c51565b8114611c8f575f5ffd5b50565b5f81359050611ca081611c7c565b92915050565b5f60208284031215611cbb57611cba611bc3565b5b5f611cc884828501611c92565b91505092915050565b5f8115159050919050565b611ce581611cd1565b82525050565b5f602082019050611cfe5f830184611cdc565b92915050565b5f81519050919050565b5f82825260208201905092915050565b8281835e5f83830152505050565b5f601f19601f8301169050919050565b5f611d4682611d04565b611d508185611d0e565b9350611d60818560208601611d1e565b611d6981611d2c565b840191505092915050565b5f6020820190508181035f830152611d8c8184611d3c565b905092915050565b5f73ffffffffffffffffffffffffffffffffffffffff82169050919050565b5f611dbd82611d94565b9050919050565b611dcd81611db3565b82525050565b5f602082019050611de65f830184611dc4565b92915050565b611df581611db3565b8114611dff575f5ffd5b50565b5f81359050611e1081611dec565b92915050565b5f5f60408385031215611e2c57611e2b611bc3565b5b5f611e3985828601611e02565b9250506020611e4a85828601611bea565b9150509250929050565b5f5ffd5b5f5ffd5b7f4e487b71000000000000000000000000000000000000000000000000000000005f52604160045260245ffd5b611e9282611d2c565b810181811067ffffffffffffffff82111715611eb157611eb0611e5c565b5b80604052505050565b5f611ec3611bba565b9050611ecf8282611e89565b919050565b5f67ffffffffffffffff821115611eee57611eed611e5c565b5b611ef782611d2c565b9050602081019050919050565b828183375f83830152505050565b5f611f24611f1f84611ed4565b611eba565b905082815260208101848484011115611f4057611f3f611e58565b5b611f4b848285611f04565b509392505050565b5f82601f830112611f6757611f66611e54565b5b8135611f77848260208601611f12565b91505092915050565b5f5f5f60608486031215611f9757611f96611bc3565b5b5f611fa486828701611e02565b9350506020611fb586828701611bea565b925050604084013567ffffffffffffffff811115611fd657611fd5611bc7565b5b611fe286828701611f53565b9150509250925092565b5f5f5f6060848603121561200357612002611bc3565b5b5f61201086828701611e02565b935050602061202186828701611e02565b925050604061203286828701611bea565b9150509250925092565b5f6020828403121561205157612050611bc3565b5b5f61205e84828501611e02565b91505092915050565b61207081611cd1565b811461207a575f5ffd5b50565b5f8135905061208b81612067565b92915050565b5f5f604083850312156120a7576120a6611bc3565b5b5f6120b485828601611e02565b92505060206120c58582860161207d565b9150509250929050565b5f67ffffffffffffffff8211156120e9576120e8611e5c565b5b6120f282611d2c565b9050602081019050919050565b5f61211161210c846120cf565b611eba565b90508281526020810184848401111561212d5761212c611e58565b5b612138848285611f04565b509392505050565b5f82601f83011261215457612153611e54565b5b81356121648482602086016120ff565b91505092915050565b5f5f5f5f6080858703121561218557612184611bc3565b5b5f61219287828801611e02565b94505060206121a387828801611e02565b93505060406121b487828801611bea565b925050606085013567ffffffffffffffff8111156121d5576121d4611bc7565b5b6121e187828801612140565b91505092959194509250565b5f5f6040838503121561220357612202611bc3565b5b5f61221085828601611e02565b925050602061222185828601611e02565b9150509250929050565b7f4e487b71000000000000000000000000000000000000000000000000000000005f52602260045260245ffd5b5f600282049050600182168061226f57607f821691505b6020821081036122825761228161222b565b5b50919050565b7f4e487b71000000000000000000000000000000000000000000000000000000005f52601160045260245ffd5b5f6122bf82611bcb565b91507fffffffffffffffffffffffffffffffffffffffffffffffffffffffffffffffff82036122f1576122f0612288565b5b600182019050919050565b5f60608201905061230f5f830186611dc4565b61231c6020830185611c29565b6123296040830184611dc4565b949350505050565b5f81905092915050565b5f61234582611d04565b61234f8185612331565b935061235f818560208601611d1e565b80840191505092915050565b5f612376828561233b565b9150612382828461233b565b91508190509392505050565b5f819050815f5260205f209050919050565b5f6020601f8301049050919050565b5f82821b905092915050565b5f600883026123ea7fffffffffffffffffffffffffffffffffffffffffffffffffffffffffffffffff826123af565b6123f486836123af565b95508019841693508086168417925050509392505050565b5f819050919050565b5f61242f61242a61242584611bcb565b61240c565b611bcb565b9050919050565b5f819050919050565b61244883612415565b61245c61245482612436565b8484546123bb565b825550505050565b5f5f905090565b612473612464565b61247e81848461243f565b505050565b5b818110156124a1576124965f8261246b565b600181019050612484565b5050565b601f8211156124e6576124b78161238e565b6124c0846123a0565b810160208510156124cf578190505b6124e36124db856123a0565b830182612483565b50505b505050565b5f82821c905092915050565b5f6125065f19846008026124eb565b1980831691505092915050565b5f61251e83836124f7565b9150826002028217905092915050565b61253782611d04565b67ffffffffffffffff8111156125505761254f611e5c565b5b61255a8254612258565b6125658282856124a5565b5f60209050601f831160018114612596575f8415612584578287015190505b61258e8582612513565b8655506125f5565b601f1984166125a48661238e565b5f5b828110156125cb578489015182556001820191506020850194506020810190506125a6565b868310156125e857848901516125e4601f8916826124f7565b8355505b6001600288020188555050505b505050505050565b5f81519050919050565b5f82825260208201905092915050565b5f612621826125fd565b61262b8185612607565b935061263b818560208601611d1e565b61264481611d2c565b840191505092915050565b5f6080820190506126625f830187611dc4565b61266f6020830186611dc4565b61267c6040830185611c29565b818103606083015261268e8184612617565b905095945050505050565b5f815190506126a781611c7c565b92915050565b5f602082840312156126c2576126c1611bc3565b5b5f6126cf84828501612699565b91505092915050565b5f6040820190506126eb5f830185611dc4565b6126f86020830184611c29565b9392505050565b7f4e487b71000000000000000000000000000000000000000000000000000000005f52601260045260245ffdfea2646970667358221220c5686330d06546eb34ee23e394a49dc1d929f59d8d2e3b4f95d35cfdf08f698164736f6c634300081c0033",
  "linkReferences": {},
  "deployedLinkReferences": {},
  "immutableReferences": {},
  "inputSourceName": "project/contracts/PropertyNFT.sol",
  "buildInfoId": "solc-0_8_28-9d8fca95ac0227ea6efa76497250f5b1922ba0be"
}