{
  "_format": "hh3-artifact-1",
  "contractName": "Marketplace",
  "sourceName": "contracts/Marketplace.sol",
  "abi": [
    {
      "inputs": [
        {
          "internalType": "address",
          "name": "_registry",
          "type": "address"
        },
        {
          "internalType": "address",
          "name": "_nft",
          "type": "address"
        }
      ],
      "stateMutability": "nonpayable",
      "type": "constructor"
    },
    {
      "anonymous": false,
      "inputs": [
        {
          "indexed": true,
          "internalType": "uint256",
          "name": "propertyId",
          "type": "uint256"
        },
        {
          "indexed": true,
          "internalType": "address",
          "name": "buyer",
          "type": "address"
        }
      ],
      "name": "SaleCancelled",
      "type": "event"
    },
    {
      "anonymous": false,
      "inputs": [
        {
          "indexed": true,
          "internalType": "uint256",
          "name": "propertyId",
          "type": "uint256"
        },
        {
          "indexed": true,
          "internalType": "address",
          "name": "buyer",
          "type": "address"
        },
        {
          "indexed": false,
          "internalType": "uint256",
          "name": "price",
          "type": "uint256"
        }
      ],
      "name": "SaleCompleted",
      "type": "event"
    },
    {
      "anonymous": false,
      "inputs": [
        {
          "indexed": true,
          "internalType": "uint256",
          "name": "propertyId",
          "type": "uint256"
        },
        {
          "indexed": true,
          "internalType": "address",
          "name": "buyer",
          "type": "address"
        },
        {
          "indexed": false,
          "internalType": "uint256",
          "name": "amount",
          "type": "uint256"
        }
      ],
      "name": "SaleInitiated",
      "type": "event"
    },
    {
      "inputs": [
        {
          "internalType": "uint256",
          "name": "_propertyId",
          "type": "uint256"
        }
      ],
      "name": "cancelSale",
      "outputs": [],
      "stateMutability": "nonpayable",
      "type": "function"
    },
    {
      "inputs": [
        {
          "internalType": "uint256",
          "name": "_propertyId",
          "type": "uint256"
        },
        {
          "internalType": "string",
          "name": "_tokenURI",
          "type": "string"
        }
      ],
      "name": "completeSale",
      "outputs": [],
      "stateMutability": "nonpayable",
      "type": "function"
    },
    {
      "inputs": [
        {
          "internalType": "uint256",
          "name": "",
          "type": "uint256"
        }
      ],
      "name": "escrows",
      "outputs": [
        {
          "internalType": "uint256",
          "name": "propertyId",
          "type": "uint256"
        },
        {
          "internalType": "address",
          "name": "buyer",
          "type": "address"
        },
        {
          "internalType": "uint256",
          "name": "amount",
          "type": "uint256"
        },
        {
          "internalType": "bool",
          "name": "released",
          "type": "bool"
        }
      ],
      "stateMutability": "view",
      "type": "function"
    },
    {
      "inputs": [],
      "name": "feeRecipient",
      "outputs": [
        {
          "internalType": "address",
          "name": "",
          "type": "address"
        }
      ],
      "stateMutability": "view",
      "type": "function"
    },
    {
      "inputs": [
        {
          "internalType": "uint256",
          "name": "_propertyId",
          "type": "uint256"
        }
      ],
      "name": "getEscrow",
      "outputs": [
        {
          "components": [
            {
              "internalType": "uint256",
              "name": "propertyId",
              "type": "uint256"
            },
            {
              "internalType": "address",
              "name": "buyer",
              "type": "address"
            },
            {
              "internalType": "uint256",
              "name": "amount",
              "type": "uint256"
            },
            {
              "internalType": "bool",
              "name": "released",
              "type": "bool"
            }
          ],
          "internalType": "struct Marketplace.Escrow",
          "name": "",
          "type": "tuple"
        }
      ],
      "stateMutability": "view",
      "type": "function"
    },
    {
      "inputs": [
        {
          "internalType": "uint256",
          "name": "_propertyId",
          "type": "uint256"
        }
      ],
      "name": "initiatePurchase",
      "outputs": [],
      "stateMutability": "payable",
      "type": "function"
    },
    {
      "inputs": [],
      "name": "nft",
      "outputs": [
        {
          "internalType": "contract PropertyNFT",
          "name": "",
          "type": "address"
        }
      ],
      "stateMutability": "view",
      "type": "function"
    },
    {
      "inputs": [],
      "name": "platformFeePercent",
      "outputs": [
        {
          "internalType": "uint256",
          "name": "",
          "type": "uint256"
        }
      ],
      "stateMutability": "view",
      "type": "function"
    },
    {
      "inputs": [],
      "name": "registry",
      "outputs": [
        {
          "internalType": "contract PropertyRegistry",
          "name": "",
          "type": "address"
        }
      ],
      "stateMutability": "view",
      "type": "function"
    }
  ],
  "bytecode": "0x608060405260028055348015610013575f5ffd5b50604051611bdf380380611bdf83398181016040528101906100359190610159565b815f5f6101000a81548173ffffffffffffffffffffffffffffffffffffffff021916908373ffffffffffffffffffffffffffffffffffffffff1602179055508060015f6101000a81548173ffffffffffffffffffffffffffffffffffffffff021916908373ffffffffffffffffffffffffffffffffffffffff1602179055503360035f6101000a81548173ffffffffffffffffffffffffffffffffffffffff021916908373ffffffffffffffffffffffffffffffffffffffff1602179055505050610197565b5f5ffd5b5f73ffffffffffffffffffffffffffffffffffffffff82169050919050565b5f610128826100ff565b9050919050565b6101388161011e565b8114610142575f5ffd5b50565b5f815190506101538161012f565b92915050565b5f5f6040838503121561016f5761016e6100fb565b5b5f61017c85828601610145565b925050602061018d85828601610145565b9150509250929050565b611a3b806101a45f395ff3fe608060405260043610610085575f3560e01c80637d19e596116100585780637d19e59614610146578063839ae403146101825780638c639a85146101aa578063bd94b005146101d4578063dd142be0146101fc57610085565b8063012f52ee1461008957806346904840146100c857806347ccca02146100f25780637b1039991461011c575b5f5ffd5b348015610094575f5ffd5b506100af60048036038101906100aa9190610f39565b610218565b6040516100bf9493929190610fcc565b60405180910390f35b3480156100d3575f5ffd5b506100dc61026f565b6040516100e9919061100f565b60405180910390f35b3480156100fd575f5ffd5b50610106610294565b6040516101139190611083565b60405180910390f35b348015610127575f5ffd5b506101306102b9565b60405161013d91906110bc565b60405180910390f35b348015610151575f5ffd5b5061016c60048036038101906101679190610f39565b6102dd565b6040516101799190611155565b60405180910390f35b34801561018d575f5ffd5b506101a860048036038101906101a391906112aa565b61038a565b005b3480156101b5575f5ffd5b506101be6108d1565b6040516101cb9190611304565b60405180910390f35b3480156101df575f5ffd5b506101fa60048036038101906101f59190610f39565b6108d7565b005b61021660048036038101906102119190610f39565b610ba6565b005b6004602052805f5260405f205f91509050805f015490806001015f9054906101000a900473ffffffffffffffffffffffffffffffffffffffff1690806002015490806003015f9054906101000a900460ff16905084565b60035f9054906101000a900473ffffffffffffffffffffffffffffffffffffffff1681565b60015f9054906101000a900473ffffffffffffffffffffffffffffffffffffffff1681565b5f5f9054906101000a900473ffffffffffffffffffffffffffffffffffffffff1681565b6102e5610eb9565b60045f8381526020019081526020015f206040518060800160405290815f8201548152602001600182015f9054906101000a900473ffffffffffffffffffffffffffffffffffffffff1673ffffffffffffffffffffffffffffffffffffffff1673ffffffffffffffffffffffffffffffffffffffff16815260200160028201548152602001600382015f9054906101000a900460ff1615151515815250509050919050565b5f60045f8481526020019081526020015f2090505f5f5f9054906101000a900473ffffffffffffffffffffffffffffffffffffffff1673ffffffffffffffffffffffffffffffffffffffff166332665ffb856040518263ffffffff1660e01b81526004016103f89190611304565b5f60405180830381865afa158015610412573d5f5f3e3d5ffd5b505050506040513d5f823e3d601f19601f8201168201806040525081019061043a9190611508565b90505f73ffffffffffffffffffffffffffffffffffffffff16826001015f9054906101000a900473ffffffffffffffffffffffffffffffffffffffff1673ffffffffffffffffffffffffffffffffffffffff16036104cd576040517f08c379a00000000000000000000000000000000000000000000000000000000081526004016104c4906115a9565b60405180910390fd5b816003015f9054906101000a900460ff161561051e576040517f08c379a000000000000000000000000000000000000000000000000000000000815260040161051590611611565b60405180910390fd5b806080015173ffffffffffffffffffffffffffffffffffffffff163373ffffffffffffffffffffffffffffffffffffffff1614806105aa5750816001015f9054906101000a900473ffffffffffffffffffffffffffffffffffffffff1673ffffffffffffffffffffffffffffffffffffffff163373ffffffffffffffffffffffffffffffffffffffff16145b6105e9576040517f08c379a00000000000000000000000000000000000000000000000000000000081526004016105e090611679565b60405180910390fd5b6001826003015f6101000a81548160ff0219169083151502179055505f6064600254846002015461061a91906116c4565b6106249190611732565b90505f8184600201546106379190611762565b9050826080015173ffffffffffffffffffffffffffffffffffffffff166108fc8290811502906040515f60405180830381858888f19350505050158015610680573d5f5f3e3d5ffd5b5060035f9054906101000a900473ffffffffffffffffffffffffffffffffffffffff1673ffffffffffffffffffffffffffffffffffffffff166108fc8390811502906040515f60405180830381858888f193505050501580156106e5573d5f5f3e3d5ffd5b5060015f9054906101000a900473ffffffffffffffffffffffffffffffffffffffff1673ffffffffffffffffffffffffffffffffffffffff16632151da27856001015f9054906101000a900473ffffffffffffffffffffffffffffffffffffffff1688886040518463ffffffff1660e01b8152600401610767939291906117d7565b6020604051808303815f875af1158015610783573d5f5f3e3d5ffd5b505050506040513d601f19601f820116820180604052508101906107a79190611813565b505f5f9054906101000a900473ffffffffffffffffffffffffffffffffffffffff1673ffffffffffffffffffffffffffffffffffffffff166329507f7387866001015f9054906101000a900473ffffffffffffffffffffffffffffffffffffffff166040518363ffffffff1660e01b815260040161082692919061183e565b5f604051808303815f87803b15801561083d575f5ffd5b505af115801561084f573d5f5f3e3d5ffd5b50505050836001015f9054906101000a900473ffffffffffffffffffffffffffffffffffffffff1673ffffffffffffffffffffffffffffffffffffffff16867feaa0b3bd2d2b8f1ec500812be411e759ca63e36ab996d88f59d3076f634f095a86600201546040516108c19190611304565b60405180910390a3505050505050565b60025481565b5f60045f8381526020019081526020015f2090505f5f5f9054906101000a900473ffffffffffffffffffffffffffffffffffffffff1673ffffffffffffffffffffffffffffffffffffffff166332665ffb846040518263ffffffff1660e01b81526004016109459190611304565b5f60405180830381865afa15801561095f573d5f5f3e3d5ffd5b505050506040513d5f823e3d601f19601f820116820180604052508101906109879190611508565b9050806080015173ffffffffffffffffffffffffffffffffffffffff163373ffffffffffffffffffffffffffffffffffffffff161480610a155750816001015f9054906101000a900473ffffffffffffffffffffffffffffffffffffffff1673ffffffffffffffffffffffffffffffffffffffff163373ffffffffffffffffffffffffffffffffffffffff16145b610a54576040517f08c379a0000000000000000000000000000000000000000000000000000000008152600401610a4b90611679565b60405180910390fd5b816003015f9054906101000a900460ff1615610aa5576040517f08c379a0000000000000000000000000000000000000000000000000000000008152600401610a9c90611611565b60405180910390fd5b5f826002015490505f83600201819055506001836003015f6101000a81548160ff021916908315150217905550826001015f9054906101000a900473ffffffffffffffffffffffffffffffffffffffff1673ffffffffffffffffffffffffffffffffffffffff166108fc8290811502906040515f60405180830381858888f19350505050158015610b38573d5f5f3e3d5ffd5b50826001015f9054906101000a900473ffffffffffffffffffffffffffffffffffffffff1673ffffffffffffffffffffffffffffffffffffffff16847fd9e530acb8429c8e5337d9d3230e4cc7d742e32c2fc8d76608c19f2e1701ed0460405160405180910390a350505050565b5f5f5f9054906101000a900473ffffffffffffffffffffffffffffffffffffffff1673ffffffffffffffffffffffffffffffffffffffff166332665ffb836040518263ffffffff1660e01b8152600401610c009190611304565b5f60405180830381865afa158015610c1a573d5f5f3e3d5ffd5b505050506040513d5f823e3d601f19601f82011682018060405250810190610c429190611508565b90508060a00151610c88576040517f08c379a0000000000000000000000000000000000000000000000000000000008152600401610c7f906118af565b60405180910390fd5b3373ffffffffffffffffffffffffffffffffffffffff16816080015173ffffffffffffffffffffffffffffffffffffffff1603610cfa576040517f08c379a0000000000000000000000000000000000000000000000000000000008152600401610cf190611917565b60405180910390fd5b8060600151341015610d41576040517f08c379a0000000000000000000000000000000000000000000000000000000008152600401610d389061197f565b60405180910390fd5b60045f8381526020019081526020015f206003015f9054906101000a900460ff1615610da2576040517f08c379a0000000000000000000000000000000000000000000000000000000008152600401610d99906119e7565b60405180910390fd5b60405180608001604052808381526020013373ffffffffffffffffffffffffffffffffffffffff1681526020013481526020015f151581525060045f8481526020019081526020015f205f820151815f01556020820151816001015f6101000a81548173ffffffffffffffffffffffffffffffffffffffff021916908373ffffffffffffffffffffffffffffffffffffffff160217905550604082015181600201556060820151816003015f6101000a81548160ff0219169083151502179055509050503373ffffffffffffffffffffffffffffffffffffffff16827f8c588d07beaca707a91422b3b2af046aeeea679dc0560ee518510fd686dfa72534604051610ead9190611304565b60405180910390a35050565b60405180608001604052805f81526020015f73ffffffffffffffffffffffffffffffffffffffff1681526020015f81526020015f151581525090565b5f604051905090565b5f5ffd5b5f5ffd5b5f819050919050565b610f1881610f06565b8114610f22575f5ffd5b50565b5f81359050610f3381610f0f565b92915050565b5f60208284031215610f4e57610f4d610efe565b5b5f610f5b84828501610f25565b91505092915050565b610f6d81610f06565b82525050565b5f73ffffffffffffffffffffffffffffffffffffffff82169050919050565b5f610f9c82610f73565b9050919050565b610fac81610f92565b82525050565b5f8115159050919050565b610fc681610fb2565b82525050565b5f608082019050610fdf5f830187610f64565b610fec6020830186610fa3565b610ff96040830185610f64565b6110066060830184610fbd565b95945050505050565b5f6020820190506110225f830184610fa3565b92915050565b5f819050919050565b5f61104b61104661104184610f73565b611028565b610f73565b9050919050565b5f61105c82611031565b9050919050565b5f61106d82611052565b9050919050565b61107d81611063565b82525050565b5f6020820190506110965f830184611074565b92915050565b5f6110a682611052565b9050919050565b6110b68161109c565b82525050565b5f6020820190506110cf5f8301846110ad565b92915050565b6110de81610f06565b82525050565b6110ed81610f92565b82525050565b6110fc81610fb2565b82525050565b608082015f8201516111165f8501826110d5565b50602082015161112960208501826110e4565b50604082015161113c60408501826110d5565b50606082015161114f60608501826110f3565b50505050565b5f6080820190506111685f830184611102565b92915050565b5f5ffd5b5f5ffd5b5f601f19601f8301169050919050565b7f4e487b71000000000000000000000000000000000000000000000000000000005f52604160045260245ffd5b6111bc82611176565b810181811067ffffffffffffffff821117156111db576111da611186565b5b80604052505050565b5f6111ed610ef5565b90506111f982826111b3565b919050565b5f67ffffffffffffffff82111561121857611217611186565b5b61122182611176565b9050602081019050919050565b828183375f83830152505050565b5f61124e611249846111fe565b6111e4565b90508281526020810184848401111561126a57611269611172565b5b61127584828561122e565b509392505050565b5f82601f8301126112915761129061116e565b5b81356112a184826020860161123c565b91505092915050565b5f5f604083850312156112c0576112bf610efe565b5b5f6112cd85828601610f25565b925050602083013567ffffffffffffffff8111156112ee576112ed610f02565b5b6112fa8582860161127d565b9150509250929050565b5f6020820190506113175f830184610f64565b92915050565b5f5ffd5b5f5ffd5b5f8151905061133381610f0f565b92915050565b8281835e5f83830152505050565b5f611359611354846111fe565b6111e4565b90508281526020810184848401111561137557611374611172565b5b611380848285611339565b509392505050565b5f82601f83011261139c5761139b61116e565b5b81516113ac848260208601611347565b91505092915050565b6113be81610f92565b81146113c8575f5ffd5b50565b5f815190506113d9816113b5565b92915050565b6113e881610fb2565b81146113f2575f5ffd5b50565b5f81519050611403816113df565b92915050565b5f610100828403121561141f5761141e61131d565b5b61142a6101006111e4565b90505f61143984828501611325565b5f83015250602082015167ffffffffffffffff81111561145c5761145b611321565b5b61146884828501611388565b602083015250604061147c84828501611325565b604083015250606061149084828501611325565b60608301525060806114a4848285016113cb565b60808301525060a06114b8848285016113f5565b60a08301525060c082015167ffffffffffffffff8111156114dc576114db611321565b5b6114e884828501611388565b60c08301525060e06114fc84828501611325565b60e08301525092915050565b5f6020828403121561151d5761151c610efe565b5b5f82015167ffffffffffffffff81111561153a57611539610f02565b5b61154684828501611409565b91505092915050565b5f82825260208201905092915050565b7f4e6f20657363726f7720666f756e6400000000000000000000000000000000005f82015250565b5f611593600f8361154f565b915061159e8261155f565b602082019050919050565b5f6020820190508181035f8301526115c081611587565b9050919050565b7f416c726561647920636f6d706c657465640000000000000000000000000000005f82015250565b5f6115fb60118361154f565b9150611606826115c7565b602082019050919050565b5f6020820190508181035f830152611628816115ef565b9050919050565b7f4e6f7420617574686f72697a65640000000000000000000000000000000000005f82015250565b5f611663600e8361154f565b915061166e8261162f565b602082019050919050565b5f6020820190508181035f83015261169081611657565b9050919050565b7f4e487b71000000000000000000000000000000000000000000000000000000005f52601160045260245ffd5b5f6116ce82610f06565b91506116d983610f06565b92508282026116e781610f06565b915082820484148315176116fe576116fd611697565b5b5092915050565b7f4e487b71000000000000000000000000000000000000000000000000000000005f52601260045260245ffd5b5f61173c82610f06565b915061174783610f06565b92508261175757611756611705565b5b828204905092915050565b5f61176c82610f06565b915061177783610f06565b925082820390508181111561178f5761178e611697565b5b92915050565b5f81519050919050565b5f6117a982611795565b6117b3818561154f565b93506117c3818560208601611339565b6117cc81611176565b840191505092915050565b5f6060820190506117ea5f830186610fa3565b6117f76020830185610f64565b8181036040830152611809818461179f565b9050949350505050565b5f6020828403121561182857611827610efe565b5b5f61183584828501611325565b91505092915050565b5f6040820190506118515f830185610f64565b61185e6020830184610fa3565b9392505050565b7f4e6f7420666f722073616c6500000000000000000000000000000000000000005f82015250565b5f611899600c8361154f565b91506118a482611865565b602082019050919050565b5f6020820190508181035f8301526118c68161188d565b9050919050565b7f43616e6e6f742062757920796f7572206f776e2070726f7065727479000000005f82015250565b5f611901601c8361154f565b915061190c826118cd565b602082019050919050565b5f6020820190508181035f83015261192e816118f5565b9050919050565b7f496e73756666696369656e74204d415449432073656e740000000000000000005f82015250565b5f61196960178361154f565b915061197482611935565b602082019050919050565b5f6020820190508181035f8301526119968161195d565b9050919050565b7f53616c6520616c726561647920696e2070726f677265737300000000000000005f82015250565b5f6119d160188361154f565b91506119dc8261199d565b602082019050919050565b5f6020820190508181035f8301526119fe816119c5565b905091905056fea264697066735822122082172c84de4f1899ec76034e1012854e95db0d645f594b8aa46d2beb031f906764736f6c634300081c0033",
  "linkReferences": {},
  "deployedLinkReferences": {},
  "immutableReferences": {},
  "inputSourceName": "project/contracts/Marketplace.sol",
  "buildInfoId": "solc-0_8_28-9d8fca95ac0227ea6efa76497250f5b1922ba0be"
}