{
  "_format": "hh3-artifact-1",
  "contractName": "PropertyNFT",
  "sourceName": "contracts/PropertyNFT.sol",
  "abi": [
    {
      "inputs": [],
      "stateMutability": "nonpayable",
      "type": "constructor"
    },
    {
      "inputs": [
        {
          "internalType": "address",
          "name": "sender",
          "type": "address"
        },
        {
          "internalType": "uint256",
          "name": "tokenId",
          "type": "uint256"
        },
        {
          "internalType": "address",
          "name": "owner",
          "type": "address"
        }
      ],
      "name": "ERC721IncorrectOwner",
      "type": "error"
    },
    {
      "inputs": [
        {
          "internalType": "address",
          "name": "operator",
          "type": "address"
        },
        {
          "internalType": "uint256",
          "name": "tokenId",
          "type": "uint256"
        }
      ],
      "name": "ERC721InsufficientApproval",
      "type": "error"
    },
    {
      "inputs": [
        {
          "internalType": "address",
          "name": "approver",
          "type": "address"
        }
      ],
      "name": "ERC721InvalidApprover",
      "type": "error"
    },
    {
      "inputs": [
        {
          "internalType": "address",
          "name": "operator",
          "type": "address"
        }
      ],
      "name": "ERC721InvalidOperator",
      "type": "error"
    },
    {
      "inputs": [
        {
          "internalType": "address",
          "name": "owner",
          "type": "address"
        }
      ],
      "name": "ERC721InvalidOwner",
      "type": "error"
    },
    {
      "inputs": [
        {
          "internalType": "address",
          "name": "receiver",
          "type": "address"
        }
      ],
      "name": "ERC721InvalidReceiver",
      "type": "error"
    },
    {
      "inputs": [
        {
          "internalType": "address",
          "name": "sender",
          "type": "address"
        }
      ],
      "name": "ERC721InvalidSender",
      "type": "error"
    },
    {
      "inputs": [
        {
          "internalType": "uint256",
          "name": "tokenId",
          "type": "uint256"
        }
      ],
      "name": "ERC721NonexistentToken",
      "type": "error"
    },
    {
      "inputs": [
        {
          "internalType": "address",
          "name": "owner",
          "type": "address"
        }
      ],
      "name": "OwnableInvalidOwner",
      "type": "error"
    },
    {
      "inputs": [
        {
          "internalType": "address",
          "name": "account",
          "type": "address"
        }
      ],
      "name": "OwnableUnauthorizedAccount",
      "type": "error"
    },
    {
      "anonymous": false,
      "inputs": [
        {
          "indexed": true,
          "internalType": "address",
          "name": "owner",
          "type": "address"
        },
        {
          "indexed": true,
          "internalType": "address",
          "name": "approved",
          "type": "address"
        },
        {
          "indexed": true,
          "internalType": "uint256",
          "name": "tokenId",
          "type": "uint256"
        }
      ],
      "name": "Approval",
      "type": "event"
    },
    {
      "anonymous": false,
      "inputs": [
        {
          "indexed": true,
          "internalType": "address",
          "name": "owner",
          "type": "address"
        },
        {
          "indexed": true,
          "internalType": "address",
          "name": "operator",
          "type": "address"
        },
        {
          "indexed": false,
          "internalType": "bool",
          "name": "approved",
          "type": "bool"
        }
      ],
      "name": "ApprovalForAll",
      "type": "event"
    },
    {
      "anonymous": false,
      "inputs": [
        {
          "indexed": false,
          "internalType": "uint256",
          "name": "_fromTokenId",
          "type": "uint256"
        },
        {
          "indexed": false,
          "internalType": "uint256",
          "name": "_toTokenId",
          "type": "uint256"
        }
      ],
      "name": "BatchMetadataUpdate",
      "type": "event"
    },
    {
      "anonymous": false,
      "inputs": [
        {
          "indexed": false,
          "internalType": "uint256",
          "name": "_tokenId",
          "type": "uint256"
        }
      ],
      "name": "MetadataUpdate",
      "type": "event"
    },
    {
      "anonymous": false,
      "inputs": [
        {
          "indexed": true,
          "internalType": "address",
          "name": "previousOwner",
          "type": "address"
        },
        {
          "indexed": true,
          "internalType": "address",
          "name": "newOwner",
          "type": "address"
        }
      ],
      "name": "OwnershipTransferred",
      "type": "event"
    },
    {
      "anonymous": false,
      "inputs": [
        {
          "indexed": true,
          "internalType": "uint256",
          "name": "propertyId",
          "type": "uint256"
        },
        {
          "indexed": true,
          "internalType": "uint256",
          "name": "tokenId",
          "type": "uint256"
        },
        {
          "indexed": false,
          "internalType": "address",
          "name": "owner",
          "type": "address"
        }
      ],
      "name": "PropertyTokenized",
      "type": "event"
    },
    {
      "anonymous": false,
      "inputs": [
        {
          "indexed": true,
          "internalType": "address",
          "name": "from",
          "type": "address"
        },
        {
          "indexed": true,
          "internalType": "address",
          "name": "to",
          "type": "address"
        },
        {
          "indexed": true,
          "internalType": "uint256",
          "name": "tokenId",
          "type": "uint256"
        }
      ],
      "name": "Transfer",
      "type": "event"
    },
    {
      "inputs": [
        {
          "internalType": "address",
          "name": "to",
          "type": "address"
        },
        {
          "internalType": "uint256",
          "name": "tokenId",
          "type": "uint256"
        }
      ],
      "name": "approve",
      "outputs": [],
      "stateMutability": "nonpayable",
      "type": "function"
    },
    {
      "inputs": [
        {
          "internalType": "address",
          "name": "owner",
          "type": "address"
        }
      ],
      "name": "balanceOf",
      "outputs": [
        {
          "internalType": "uint256",
          "name": "",
          "type": "uint256"
        }
      ],
      "stateMutability": "view",
      "type": "function"
    },
    {
      "inputs": [
        {
          "internalType": "uint256",
          "name": "tokenId",
          "type": "uint256"
        }
      ],
      "name": "getApproved",
      "outputs": [
        {
          "internalType": "address",
          "name": "",
          "type": "address"
        }
      ],
      "stateMutability": "view",
      "type": "function"
    },
    {
      "inputs": [
        {
          "internalType": "address",
          "name": "owner",
          "type": "address"
        },
        {
          "internalType": "address",
          "name": "operator",
          "type": "address"
        }
      ],
      "name": "isApprovedForAll",
      "outputs": [
        {
          "internalType": "bool",
          "name": "",
          "type": "bool"
        }
      ],
      "stateMutability": "view",
      "type": "function"
    },
    {
      "inputs": [
        {
          "internalType": "address",
          "name": "_to",
          "type": "address"
        },
        {
          "internalType": "uint256",
          "name": "_propertyId",
          "type": "uint256"
        },
        {
          "internalType": "string",
          "name": "_tokenURI",
          "type": "string"
        }
      ],
      "name": "mintPropertyNFT",
      "outputs": [
        {
          "internalType": "uint256",
          "name": "",
          "type": "uint256"
        }
      ],
      "stateMutability": "nonpayable",
      "type": "function"
    },
    {
      "inputs": [],
      "name": "name",
      "outputs": [
        {
          "internalType": "string",
          "name": "",
          "type": "string"
        }
      ],
      "stateMutability": "view",
      "type": "function"
    },
    {
      "inputs": [],
      "name": "owner",
      "outputs": [
        {
          "internalType": "address",
          "name": "",
          "type": "address"
        }
      ],
      "stateMutability": "view",
      "type": "function"
    },
    {
      "inputs": [
        {
          "internalType": "uint256",
          "name": "tokenId",
          "type": "uint256"
        }
      ],
      "name": "ownerOf",
      "outputs": [
        {
          "internalType": "address",
          "name": "",
          "type": "address"
        }
      ],
      "stateMutability": "view",
      "type": "function"
    },
    {
      "inputs": [
        {
          "internalType": "uint256",
          "name": "",
          "type": "uint256"
        }
      ],
      "name": "propertyToToken",
      "outputs": [
        {
          "internalType": "uint256",
          "name": "",
          "type": "uint256"
        }
      ],
      "stateMutability": "view",
      "type": "function"
    },
    {
      "inputs": [],
      "name": "renounceOwnership",
      "outputs": [],
      "stateMutability": "nonpayable",
      "type": "function"
    },
    {
      "inputs": [
        {
          "internalType": "address",
          "name": "from",
          "type": "address"
        },
        {
          "internalType": "address",
          "name": "to",
          "type": "address"
        },
        {
          "internalType": "uint256",
          "name": "tokenId",
          "type": "uint256"
        }
      ],
      "name": "safeTransferFrom",
      "outputs": [],
      "stateMutability": "nonpayable",
      "type": "function"
    },
    {
      "inputs": [
        {
          "internalType": "address",
          "name": "from",
          "type": "address"
        },
        {
          "internalType": "address",
          "name": "to",
          "type": "address"
        },
        {
          "internalType": "uint256",
          "name": "tokenId",
          "type": "uint256"
        },
        {
          "internalType": "bytes",
          "name": "data",
          "type": "bytes"
        }
      ],
      "name": "safeTransferFrom",
      "outputs": [],
      "stateMutability": "nonpayable",
      "type": "function"
    },
    {
      "inputs": [
        {
          "internalType": "address",
          "name": "operator",
          "type": "address"
        },
        {
          "internalType": "bool",
          "name": "approved",
          "type": "bool"
        }
      ],
      "name": "setApprovalForAll",
      "outputs": [],
      "stateMutability": "nonpayable",
      "type": "function"
    },
    {
      "inputs": [
        {
          "internalType": "bytes4",
          "name": "interfaceId",
          "type": "bytes4"
        }
      ],
      "name": "supportsInterface",
      "outputs": [
        {
          "internalType": "bool",
          "name": "",
          "type": "bool"
        }
      ],
      "stateMutability": "view",
      "type": "function"
    },
    {
      "inputs": [],
      "name": "symbol",
      "outputs": [
        {
          "internalType": "string",
          "name": "",
          "type": "string"
        }
      ],
      "stateMutability": "view",
      "type": "function"
    },
    {
      "inputs": [
        {
          "internalType": "uint256",
          "name": "",
          "type": "uint256"
        }
      ],
      "name": "tokenToProperty",
      "outputs": [
        {
          "internalType": "uint256",
          "name": "",
          "type": "uint256"
        }
      ],
      "stateMutability": "view",
      "type": "function"
    },
    {
      "inputs": [
        {
          "internalType": "uint256",
          "name": "tokenId",
          "type": "uint256"
        }
      ],
      "name": "tokenURI",
      "outputs": [
        {
          "internalType": "string",
          "name": "",
          "type": "string"
        }
      ],
      "stateMutability": "view",
      "type": "function"
    },
    {
      "inputs": [],
      "name": "totalSupply",
      "outputs": [
        {
          "internalType": "uint256",
          "name": "",
          "type": "uint256"
        }
      ],
      "stateMutability": "view",
      "type": "function"
    },
    {
      "inputs": [
        {
          "internalType": "address",
          "name": "from",
          "type": "address"
        },
        {
          "internalType": "address",
          "name": "to",
          "type": "address"
        },
        {
          "internalType": "uint256",
          "name": "tokenId",
          "type": "uint256"
        }
      ],
      "name": "transferFrom",
      "outputs": [],
      "stateMutability": "nonpayable",
      "type": "function"
    },
    {
      "inputs": [
        {
          "internalType": "address",
          "name": "newOwner",
          "type": "address"
        }
      ],
      "name": "transferOwnership",
      "outputs": [],
      "stateMutability": "nonpayable",
      "type": "function"
    }
  ],
  "bytecode": "0x608060405234801561000f575f5ffd5b50336040518060400160405280600e81526020016d1499585b115cdd185d194813919560921b81525060405180604001604052806005815260200164149153919560da1b815250815f90816100649190610199565b5060016100718282610199565b5050506001600160a01b0381166100a157604051631e4fbdf760e01b81525f600482015260240160405180910390fd5b6100aa816100b0565b50610253565b600780546001600160a01b038381166001600160a01b0319831681179093556040519116919082907f8be0079c531659141344cd1fd0a4f28419497f9722a3daafe3b4186f6b6457e0905f90a35050565b634e487b7160e01b5f52604160045260245ffd5b600181811c9082168061012957607f821691505b60208210810361014757634e487b7160e01b5f52602260045260245ffd5b50919050565b601f82111561019457805f5260205f20601f840160051c810160208510156101725750805b601f840160051c820191505b81811015610191575f815560010161017e565b50505b505050565b81516001600160401b038111156101b2576101b2610101565b6101c6816101c08454610115565b8461014d565b6020601f8211600181146101f8575f83156101e15750848201515b5f19600385901b1c1916600184901b178455610191565b5f84815260208120601f198516915b828110156102275787850151825560209485019460019092019101610207565b508482101561024457868401515f19600387901b60f8161c191681555b50505050600190811b01905550565b6114a5806102605f395ff3fe608060405234801561000f575f5ffd5b5060043610610127575f3560e01c80636352211e116100a9578063a22cb4651161006e578063a22cb4651461027c578063b88d4fde1461028f578063c87b56dd146102a2578063e985e9c5146102b5578063f2fde38b146102c8575f5ffd5b80636352211e1461023557806370a0823114610248578063715018a61461025b5780638da5cb5b1461026357806395d89b4114610274575f5ffd5b806318160ddd116100ef57806318160ddd146101d55780632151da27146101dd57806323b872dd146101f057806342842e0e1461020357806347c7c54014610216575f5ffd5b8063010774721461012b57806301ffc9a71461015d57806306fdde0314610180578063081812fc14610195578063095ea7b3146101c0575b5f5ffd5b61014a610139366004610fa3565b60096020525f908152604090205481565b6040519081526020015b60405180910390f35b61017061016b366004610fcf565b6102db565b6040519015158152602001610154565b610188610305565b6040516101549190611018565b6101a86101a3366004610fa3565b610394565b6040516001600160a01b039091168152602001610154565b6101d36101ce366004611045565b6103bb565b005b60085461014a565b61014a6101eb3660046110f8565b6103ca565b6101d36101fe36600461115e565b610464565b6101d361021136600461115e565b6104f2565b61014a610224366004610fa3565b600a6020525f908152604090205481565b6101a8610243366004610fa3565b610511565b61014a610256366004611198565b61051b565b6101d3610560565b6007546001600160a01b03166101a8565b610188610573565b6101d361028a3660046111b1565b610582565b6101d361029d3660046111ea565b61058d565b6101886102b0366004610fa3565b6105a5565b6101706102c3366004611261565b610626565b6101d36102d6366004611198565b610653565b5f6001600160e01b03198216632483248360e11b14806102ff57506102ff82610690565b92915050565b60605f805461031390611292565b80601f016020809104026020016040519081016040528092919081815260200182805461033f90611292565b801561038a5780601f106103615761010080835404028352916020019161038a565b820191905f5260205f20905b81548152906001019060200180831161036d57829003601f168201915b5050505050905090565b5f61039e826106df565b505f828152600460205260409020546001600160a01b03166102ff565b6103c6828233610717565b5050565b5f6103d3610724565b60088054905f6103e2836112ca565b90915550506008546103f48582610751565b6103fe818461076a565b5f848152600960209081526040808320849055838352600a82529182902086905590516001600160a01b0387168152829186917fa10aea30cb750071da8d0e7e583ae13911260230fa69df3edb9f3704f598dd56910160405180910390a3949350505050565b6001600160a01b03821661049257604051633250574960e11b81525f60048201526024015b60405180910390fd5b5f61049e8383336107b9565b9050836001600160a01b0316816001600160a01b0316146104ec576040516364283d7b60e01b81526001600160a01b0380861660048301526024820184905282166044820152606401610489565b50505050565b61050c83838360405180602001604052805f81525061058d565b505050565b5f6102ff826106df565b5f6001600160a01b038216610545576040516322718ad960e21b81525f6004820152602401610489565b506001600160a01b03165f9081526003602052604090205490565b610568610724565b6105715f6108ab565b565b60606001805461031390611292565b6103c63383836108fc565b610598848484610464565b6104ec33858585856109c3565b60606105b0826106df565b505f6105c660408051602081019091525f815290565b90505f6105d284610aeb565b905081515f036105e3579392505050565b8051156106155781816040516020016105fd929190611305565b60405160208183030381529060405292505050919050565b61061e84610b8a565b949350505050565b6001600160a01b039182165f90815260056020908152604080832093909416825291909152205460ff1690565b61065b610724565b6001600160a01b03811661068457604051631e4fbdf760e01b81525f6004820152602401610489565b61068d816108ab565b50565b5f6001600160e01b031982166380ac58cd60e01b14806106c057506001600160e01b03198216635b5e139f60e01b145b806102ff57506301ffc9a760e01b6001600160e01b03198316146102ff565b5f818152600260205260408120546001600160a01b0316806102ff57604051637e27328960e01b815260048101849052602401610489565b61050c8383836001610bfb565b6007546001600160a01b031633146105715760405163118cdaa760e01b8152336004820152602401610489565b6103c6828260405180602001604052805f815250610cff565b5f828152600660205260409020610781828261135d565b506040518281527ff8e1a15aba9398e019f0b49df1a4fde98ee17ae345cb5f6b5e2c27f5033e8ce79060200160405180910390a15050565b5f828152600260205260408120546001600160a01b03908116908316156107e5576107e5818486610d16565b6001600160a01b0381161561081f576108005f855f5f610bfb565b6001600160a01b0381165f90815260036020526040902080545f190190555b6001600160a01b0385161561084d576001600160a01b0385165f908152600360205260409020805460010190555b5f8481526002602052604080822080546001600160a01b0319166001600160a01b0389811691821790925591518793918516917fddf252ad1be2c89b69c2b068fc378daa952ba7f163c4a11628f55a4df523b3ef91a4949350505050565b600780546001600160a01b038381166001600160a01b0319831681179093556040519116919082907f8be0079c531659141344cd1fd0a4f28419497f9722a3daafe3b4186f6b6457e0905f90a35050565b6001600160a01b0383166109255760405163a9fbf51f60e01b81525f6004820152602401610489565b6001600160a01b03821661095757604051630b61174360e31b81526001600160a01b0383166004820152602401610489565b6001600160a01b038381165f81815260056020908152604080832094871680845294825291829020805460ff191686151590811790915591519182527f17307eab39ab6107e8899845ad3d59bd9653f200f220920489ca2b5937696c31910160405180910390a3505050565b6001600160a01b0383163b15610ae457604051630a85bd0160e11b81526001600160a01b0384169063150b7a0290610a05908890889087908790600401611418565b6020604051808303815f875af1925050508015610a3f575060408051601f3d908101601f19168201909252610a3c91810190611454565b60015b610aa6573d808015610a6c576040519150601f19603f3d011682016040523d82523d5f602084013e610a71565b606091505b5080515f03610a9e57604051633250574960e11b81526001600160a01b0385166004820152602401610489565b805160208201fd5b6001600160e01b03198116630a85bd0160e11b14610ae257604051633250574960e11b81526001600160a01b0385166004820152602401610489565b505b5050505050565b5f818152600660205260409020805460609190610b0790611292565b80601f0160208091040260200160405190810160405280929190818152602001828054610b3390611292565b8015610b7e5780601f10610b5557610100808354040283529160200191610b7e565b820191905f5260205f20905b815481529060010190602001808311610b6157829003601f168201915b50505050509050919050565b6060610b95826106df565b505f610bab60408051602081019091525f815290565b90505f815111610bc95760405180602001604052805f815250610bf4565b80610bd384610d7a565b604051602001610be4929190611305565b6040516020818303038152906040525b9392505050565b8080610c0f57506001600160a01b03821615155b15610cd0575f610c1e846106df565b90506001600160a01b03831615801590610c4a5750826001600160a01b0316816001600160a01b031614155b8015610c5d5750610c5b8184610626565b155b15610c865760405163a9fbf51f60e01b81526001600160a01b0384166004820152602401610489565b8115610cce5783856001600160a01b0316826001600160a01b03167f8c5be1e5ebec7d5bd14f71427d1e84f3dd0314c0f7b2291e5b200ac8c7c3b92560405160405180910390a45b505b50505f90815260046020526040902080546001600160a01b0319166001600160a01b0392909216919091179055565b610d098383610e0a565b61050c335f8585856109c3565b610d21838383610e6b565b61050c576001600160a01b038316610d4f57604051637e27328960e01b815260048101829052602401610489565b60405163177e802f60e01b81526001600160a01b038316600482015260248101829052604401610489565b60605f610d8683610ecc565b60010190505f8167ffffffffffffffff811115610da557610da561106d565b6040519080825280601f01601f191660200182016040528015610dcf576020820181803683370190505b5090508181016020015b5f19016f181899199a1a9b1b9c1cb0b131b232b360811b600a86061a8153600a8504945084610dd957509392505050565b6001600160a01b038216610e3357604051633250574960e11b81525f6004820152602401610489565b5f610e3f83835f6107b9565b90506001600160a01b0381161561050c576040516339e3563760e11b81525f6004820152602401610489565b5f6001600160a01b0383161580159061061e5750826001600160a01b0316846001600160a01b03161480610ea45750610ea48484610626565b8061061e5750505f908152600460205260409020546001600160a01b03908116911614919050565b5f8072184f03e93ff9f4daa797ed6e38ed64bf6a1f0160401b8310610f0a5772184f03e93ff9f4daa797ed6e38ed64bf6a1f0160401b830492506040015b6d04ee2d6d415b85acef81000000008310610f36576d04ee2d6d415b85acef8100000000830492506020015b662386f26fc100008310610f5457662386f26fc10000830492506010015b6305f5e1008310610f6c576305f5e100830492506008015b6127108310610f8057612710830492506004015b60648310610f92576064830492506002015b600a83106102ff5760010192915050565b5f60208284031215610fb3575f5ffd5b5035919050565b6001600160e01b03198116811461068d575f5ffd5b5f60208284031215610fdf575f5ffd5b8135610bf481610fba565b5f81518084528060208401602086015e5f602082860101526020601f19601f83011685010191505092915050565b602081525f610bf46020830184610fea565b80356001600160a01b0381168114611040575f5ffd5b919050565b5f5f60408385031215611056575f5ffd5b61105f8361102a565b946020939093013593505050565b634e487b7160e01b5f52604160045260245ffd5b5f5f67ffffffffffffffff84111561109b5761109b61106d565b50604051601f19601f85018116603f0116810181811067ffffffffffffffff821117156110ca576110ca61106d565b6040528381529050808284018510156110e1575f5ffd5b838360208301375f60208583010152509392505050565b5f5f5f6060848603121561110a575f5ffd5b6111138461102a565b925060208401359150604084013567ffffffffffffffff811115611135575f5ffd5b8401601f81018613611145575f5ffd5b61115486823560208401611081565b9150509250925092565b5f5f5f60608486031215611170575f5ffd5b6111798461102a565b92506111876020850161102a565b929592945050506040919091013590565b5f602082840312156111a8575f5ffd5b610bf48261102a565b5f5f604083850312156111c2575f5ffd5b6111cb8361102a565b9150602083013580151581146111df575f5ffd5b809150509250929050565b5f5f5f5f608085870312156111fd575f5ffd5b6112068561102a565b93506112146020860161102a565b925060408501359150606085013567ffffffffffffffff811115611236575f5ffd5b8501601f81018713611246575f5ffd5b61125587823560208401611081565b91505092959194509250565b5f5f60408385031215611272575f5ffd5b61127b8361102a565b91506112896020840161102a565b90509250929050565b600181811c908216806112a657607f821691505b6020821081036112c457634e487b7160e01b5f52602260045260245ffd5b50919050565b5f600182016112e757634e487b7160e01b5f52601160045260245ffd5b5060010190565b5f81518060208401855e5f93019283525090919050565b5f61061e61131383866112ee565b846112ee565b601f82111561050c57805f5260205f20601f840160051c8101602085101561133e5750805b601f840160051c820191505b81811015610ae4575f815560010161134a565b815167ffffffffffffffff8111156113775761137761106d565b61138b816113858454611292565b84611319565b6020601f8211600181146113bd575f83156113a65750848201515b5f19600385901b1c1916600184901b178455610ae4565b5f84815260208120601f198516915b828110156113ec57878501518255602094850194600190920191016113cc565b508482101561140957868401515f19600387901b60f8161c191681555b50505050600190811b01905550565b6001600160a01b03858116825284166020820152604081018390526080606082018190525f9061144a90830184610fea565b9695505050505050565b5f60208284031215611464575f5ffd5b8151610bf481610fba56fea26469706673582212201dfb81e0d16674ca5c3d0939104eb272029435c63832faeb85dacefd74d7277564736f6c634300081c0033",
  "linkReferences": {},
  "deployedLinkReferences": {},
  "immutableReferences": {},
  "inputSourceName": "project/contracts/PropertyNFT.sol",
  "buildInfoId": "solc-0_8_28-5aa1bc735feb3f33a6505fed5c7a5d6185a888ff"
}