{
  "_format": "hh3-artifact-1",
  "contractName": "PropertyRegistry",
  "sourceName": "contracts/PropertyRegistry.sol",
  "abi": [
    {
      "anonymous": false,
      "inputs": [
        {
          "indexed": true,
          "internalType": "uint256",
          "name": "id",
          "type": "uint256"
        },
        {
          "indexed": false,
          "internalType": "uint256",
          "name": "oldPrice",
          "type": "uint256"
        },
        {
          "indexed": false,
          "internalType": "uint256",
          "name": "newPrice",
          "type": "uint256"
        }
      ],
      "name": "PriceUpdated",
      "type": "event"
    },
    {
      "anonymous": false,
      "inputs": [
        {
          "indexed": true,
          "internalType": "uint256",
          "name": "id",
          "type": "uint256"
        },
        {
          "indexed": true,
          "internalType": "address",
          "name": "owner",
          "type": "address"
        },
        {
          "indexed": false,
          "internalType": "uint256",
          "name": "price",
          "type": "uint256"
        },
        {
          "indexed": false,
          "internalType": "string",
          "name": "location",
          "type": "string"
        }
      ],
      "name": "PropertyListed",
      "type": "event"
    },
    {
      "anonymous": false,
      "inputs": [
        {
          "indexed": true,
          "internalType": "uint256",
          "name": "id",
          "type": "uint256"
        },
        {
          "indexed": false,
          "internalType": "bool",
          "name": "isForSale",
          "type": "bool"
        }
      ],
      "name": "PropertyStatusChanged",
      "type": "event"
    },
    {
      "inputs": [],
      "name": "getAllProperties",
      "outputs": [
        {
          "components": [
            {
              "internalType": "uint256",
              "name": "id",
              "type": "uint256"
            },
            {
              "internalType": "string",
              "name": "location",
              "type": "string"
            },
            {
              "internalType": "uint256",
              "name": "areaSqFt",
              "type": "uint256"
            },
            {
              "internalType": "uint256",
              "name": "price",
              "type": "uint256"
            },
            {
              "internalType": "address",
              "name": "owner",
              "type": "address"
            },
            {
              "internalType": "bool",
              "name": "isForSale",
              "type": "bool"
            },
            {
              "internalType": "string",
              "name": "ipfsHash",
              "type": "string"
            },
            {
              "internalType": "uint256",
              "name": "listedAt",
              "type": "uint256"
            }
          ],
          "internalType": "struct PropertyRegistry.Property[]",
          "name": "",
          "type": "tuple[]"
        }
      ],
      "stateMutability": "view",
      "type": "function"
    },
    {
      "inputs": [
        {
          "internalType": "address",
          "name": "_owner",
          "type": "address"
        }
      ],
      "name": "getOwnerProperties",
      "outputs": [
        {
          "internalType": "uint256[]",
          "name": "",
          "type": "uint256[]"
        }
      ],
      "stateMutability": "view",
      "type": "function"
    },
    {
      "inputs": [
        {
          "internalType": "uint256",
          "name": "_id",
          "type": "uint256"
        }
      ],
      "name": "getProperty",
      "outputs": [
        {
          "components": [
            {
              "internalType": "uint256",
              "name": "id",
              "type": "uint256"
            },
            {
              "internalType": "string",
              "name": "location",
              "type": "string"
            },
            {
              "internalType": "uint256",
              "name": "areaSqFt",
              "type": "uint256"
            },
            {
              "internalType": "uint256",
              "name": "price",
              "type": "uint256"
            },
            {
              "internalType": "address",
              "name": "owner",
              "type": "address"
            },
            {
              "internalType": "bool",
              "name": "isForSale",
              "type": "bool"
            },
            {
              "internalType": "string",
              "name": "ipfsHash",
              "type": "string"
            },
            {
              "internalType": "uint256",
              "name": "listedAt",
              "type": "uint256"
            }
          ],
          "internalType": "struct PropertyRegistry.Property",
          "name": "",
          "type": "tuple"
        }
      ],
      "stateMutability": "view",
      "type": "function"
    },
    {
      "inputs": [
        {
          "internalType": "string",
          "name": "_location",
          "type": "string"
        },
        {
          "internalType": "uint256",
          "name": "_areaSqFt",
          "type": "uint256"
        },
        {
          "internalType": "uint256",
          "name": "_price",
          "type": "uint256"
        },
        {
          "internalType": "string",
          "name": "_ipfsHash",
          "type": "string"
        }
      ],
      "name": "listProperty",
      "outputs": [
        {
          "internalType": "uint256",
          "name": "",
          "type": "uint256"
        }
      ],
      "stateMutability": "nonpayable",
      "type": "function"
    },
    {
      "inputs": [
        {
          "internalType": "address",
          "name": "",
          "type": "address"
        },
        {
          "internalType": "uint256",
          "name": "",
          "type": "uint256"
        }
      ],
      "name": "ownerProperties",
      "outputs": [
        {
          "internalType": "uint256",
          "name": "",
          "type": "uint256"
        }
      ],
      "stateMutability": "view",
      "type": "function"
    },
    {
      "inputs": [
        {
          "internalType": "uint256",
          "name": "",
          "type": "uint256"
        }
      ],
      "name": "properties",
      "outputs": [
        {
          "internalType": "uint256",
          "name": "id",
          "type": "uint256"
        },
        {
          "internalType": "string",
          "name": "location",
          "type": "string"
        },
        {
          "internalType": "uint256",
          "name": "areaSqFt",
          "type": "uint256"
        },
        {
          "internalType": "uint256",
          "name": "price",
          "type": "uint256"
        },
        {
          "internalType": "address",
          "name": "owner",
          "type": "address"
        },
        {
          "internalType": "bool",
          "name": "isForSale",
          "type": "bool"
        },
        {
          "internalType": "string",
          "name": "ipfsHash",
          "type": "string"
        },
        {
          "internalType": "uint256",
          "name": "listedAt",
          "type": "uint256"
        }
      ],
      "stateMutability": "view",
      "type": "function"
    },
    {
      "inputs": [],
      "name": "propertyCount",
      "outputs": [
        {
          "internalType": "uint256",
          "name": "",
          "type": "uint256"
        }
      ],
      "stateMutability": "view",
      "type": "function"
    },
    {
      "inputs": [
        {
          "internalType": "uint256",
          "name": "_id",
          "type": "uint256"
        }
      ],
      "name": "toggleSaleStatus",
      "outputs": [],
      "stateMutability": "nonpayable",
      "type": "function"
    },
    {
      "inputs": [
        {
          "internalType": "uint256",
          "name": "_id",
          "type": "uint256"
        },
        {
          "internalType": "address",
          "name": "_newOwner",
          "type": "address"
        }
      ],
      "name": "transferOwnership",
      "outputs": [],
      "stateMutability": "nonpayable",
      "type": "function"
    },
    {
      "inputs": [
        {
          "internalType": "uint256",
          "name": "_id",
          "type": "uint256"
        },
        {
          "internalType": "uint256",
          "name": "_newPrice",
          "type": "uint256"
        }
      ],
      "name": "updatePrice",
      "outputs": [],
      "stateMutability": "nonpayable",
      "type": "function"
    }
  ],
  "bytecode": "0x6080604052348015600e575f5ffd5b50611dc68061001c5f395ff3fe608060405234801561000f575f5ffd5b506004361061009c575f3560e01c80638f48bd5b116100645780638f48bd5b14610156578063a078c1a014610186578063c361a335146101a2578063cb644897146101c0578063f7b10808146101f05761009c565b806329507f73146100a05780632d97bd66146100bc57806332665ffb146100ec5780633d51402c1461011c57806382367b2d1461013a575b5f5ffd5b6100ba60048036038101906100b5919061101f565b610227565b005b6100d660048036038101906100d19190611199565b6103ab565b6040516100e39190611244565b60405180910390f35b6101066004803603810190610101919061125d565b610627565b60405161011391906113d4565b60405180910390f35b61012461080a565b6040516101319190611563565b60405180910390f35b610154600480360381019061014f9190611583565b610a8b565b005b610170600480360381019061016b91906115c1565b610b9e565b60405161017d9190611244565b60405180910390f35b6101a0600480360381019061019b919061125d565b610bc9565b005b6101aa610d16565b6040516101b79190611244565b60405180910390f35b6101da60048036038101906101d591906115ff565b610d1b565b6040516101e791906116d2565b60405180910390f35b61020a6004803603810190610205919061125d565b610dae565b60405161021e989796959493929190611758565b60405180910390f35b60015f8381526020019081526020015f206004015f9054906101000a900473ffffffffffffffffffffffffffffffffffffffff1673ffffffffffffffffffffffffffffffffffffffff163373ffffffffffffffffffffffffffffffffffffffff16146102c8576040517f08c379a00000000000000000000000000000000000000000000000000000000081526004016102bf9061182c565b60405180910390fd5b8060015f8481526020019081526020015f206004015f6101000a81548173ffffffffffffffffffffffffffffffffffffffff021916908373ffffffffffffffffffffffffffffffffffffffff1602179055505f60015f8481526020019081526020015f2060040160146101000a81548160ff02191690831515021790555060025f8273ffffffffffffffffffffffffffffffffffffffff1673ffffffffffffffffffffffffffffffffffffffff1681526020019081526020015f2082908060018154018082558091505060019003905f5260205f20015f90919091909150555050565b5f5f83116103ee576040517f08c379a00000000000000000000000000000000000000000000000000000000081526004016103e590611894565b60405180910390fd5b5f8411610430576040517f08c379a0000000000000000000000000000000000000000000000000000000008152600401610427906118fc565b60405180910390fd5b5f5f81548092919061044190611947565b91905055506040518061010001604052805f5481526020018681526020018581526020018481526020013373ffffffffffffffffffffffffffffffffffffffff1681526020016001151581526020018381526020014281525060015f5f5481526020019081526020015f205f820151815f015560208201518160010190816104c99190611b8b565b5060408201518160020155606082015181600301556080820151816004015f6101000a81548173ffffffffffffffffffffffffffffffffffffffff021916908373ffffffffffffffffffffffffffffffffffffffff16021790555060a08201518160040160146101000a81548160ff02191690831515021790555060c08201518160050190816105599190611b8b565b5060e0820151816006015590505060025f3373ffffffffffffffffffffffffffffffffffffffff1673ffffffffffffffffffffffffffffffffffffffff1681526020019081526020015f205f54908060018154018082558091505060019003905f5260205f20015f90919091909150553373ffffffffffffffffffffffffffffffffffffffff165f547f0770dfc6b6ddb0c8cea76fc6a9faa432a8f4a1a572b7b9ce0ebaf957b1098b378588604051610613929190611c5a565b60405180910390a35f549050949350505050565b61062f610f2a565b60015f8381526020019081526020015f20604051806101000160405290815f8201548152602001600182018054610665906119bb565b80601f0160208091040260200160405190810160405280929190818152602001828054610691906119bb565b80156106dc5780601f106106b3576101008083540402835291602001916106dc565b820191905f5260205f20905b8154815290600101906020018083116106bf57829003601f168201915b505050505081526020016002820154815260200160038201548152602001600482015f9054906101000a900473ffffffffffffffffffffffffffffffffffffffff1673ffffffffffffffffffffffffffffffffffffffff1673ffffffffffffffffffffffffffffffffffffffff1681526020016004820160149054906101000a900460ff16151515158152602001600582018054610779906119bb565b80601f01602080910402602001604051908101604052809291908181526020018280546107a5906119bb565b80156107f05780601f106107c7576101008083540402835291602001916107f0565b820191905f5260205f20905b8154815290600101906020018083116107d357829003601f168201915b505050505081526020016006820154815250509050919050565b60605f5f5467ffffffffffffffff81111561082857610827611075565b5b60405190808252806020026020018201604052801561086157816020015b61084e610f2a565b8152602001906001900390816108465790505b5090505f600190505b5f548111610a835760015f8281526020019081526020015f20604051806101000160405290815f82015481526020016001820180546108a8906119bb565b80601f01602080910402602001604051908101604052809291908181526020018280546108d4906119bb565b801561091f5780601f106108f65761010080835404028352916020019161091f565b820191905f5260205f20905b81548152906001019060200180831161090257829003601f168201915b505050505081526020016002820154815260200160038201548152602001600482015f9054906101000a900473ffffffffffffffffffffffffffffffffffffffff1673ffffffffffffffffffffffffffffffffffffffff1673ffffffffffffffffffffffffffffffffffffffff1681526020016004820160149054906101000a900460ff161515151581526020016005820180546109bc906119bb565b80601f01602080910402602001604051908101604052809291908181526020018280546109e8906119bb565b8015610a335780601f10610a0a57610100808354040283529160200191610a33565b820191905f5260205f20905b815481529060010190602001808311610a1657829003601f168201915b5050505050815260200160068201548152505082600183610a549190611c88565b81518110610a6557610a64611cbb565b5b60200260200101819052508080610a7b90611947565b91505061086a565b508091505090565b813373ffffffffffffffffffffffffffffffffffffffff1660015f8381526020019081526020015f206004015f9054906101000a900473ffffffffffffffffffffffffffffffffffffffff1673ffffffffffffffffffffffffffffffffffffffff1614610b2d576040517f08c379a0000000000000000000000000000000000000000000000000000000008152600401610b2490611d32565b60405180910390fd5b5f60015f8581526020019081526020015f206003015490508260015f8681526020019081526020015f2060030181905550837f15819dd2fd9f6418b142e798d08a18d0bf06ea368f4480b7b0d3f75bd966bc488285604051610b90929190611d50565b60405180910390a250505050565b6002602052815f5260405f208181548110610bb7575f80fd5b905f5260205f20015f91509150505481565b803373ffffffffffffffffffffffffffffffffffffffff1660015f8381526020019081526020015f206004015f9054906101000a900473ffffffffffffffffffffffffffffffffffffffff1673ffffffffffffffffffffffffffffffffffffffff1614610c6b576040517f08c379a0000000000000000000000000000000000000000000000000000000008152600401610c6290611d32565b60405180910390fd5b60015f8381526020019081526020015f2060040160149054906101000a900460ff161560015f8481526020019081526020015f2060040160146101000a81548160ff021916908315150217905550817f4913279a14e045717d5dc101f12736a9f31ea76548d0c3c8283cf449706d9c6460015f8581526020019081526020015f2060040160149054906101000a900460ff16604051610d0a9190611d77565b60405180910390a25050565b5f5481565b606060025f8373ffffffffffffffffffffffffffffffffffffffff1673ffffffffffffffffffffffffffffffffffffffff1681526020019081526020015f20805480602002602001604051908101604052809291908181526020018280548015610da257602002820191905f5260205f20905b815481526020019060010190808311610d8e575b50505050509050919050565b6001602052805f5260405f205f91509050805f015490806001018054610dd3906119bb565b80601f0160208091040260200160405190810160405280929190818152602001828054610dff906119bb565b8015610e4a5780601f10610e2157610100808354040283529160200191610e4a565b820191905f5260205f20905b815481529060010190602001808311610e2d57829003601f168201915b505050505090806002015490806003015490806004015f9054906101000a900473ffffffffffffffffffffffffffffffffffffffff16908060040160149054906101000a900460ff1690806005018054610ea3906119bb565b80601f0160208091040260200160405190810160405280929190818152602001828054610ecf906119bb565b8015610f1a5780601f10610ef157610100808354040283529160200191610f1a565b820191905f5260205f20905b815481529060010190602001808311610efd57829003601f168201915b5050505050908060060154905088565b6040518061010001604052805f8152602001606081526020015f81526020015f81526020015f73ffffffffffffffffffffffffffffffffffffffff1681526020015f15158152602001606081526020015f81525090565b5f604051905090565b5f5ffd5b5f5ffd5b5f819050919050565b610fa481610f92565b8114610fae575f5ffd5b50565b5f81359050610fbf81610f9b565b92915050565b5f73ffffffffffffffffffffffffffffffffffffffff82169050919050565b5f610fee82610fc5565b9050919050565b610ffe81610fe4565b8114611008575f5ffd5b50565b5f8135905061101981610ff5565b92915050565b5f5f6040838503121561103557611034610f8a565b5b5f61104285828601610fb1565b92505060206110538582860161100b565b9150509250929050565b5f5ffd5b5f5ffd5b5f601f19601f8301169050919050565b7f4e487b71000000000000000000000000000000000000000000000000000000005f52604160045260245ffd5b6110ab82611065565b810181811067ffffffffffffffff821117156110ca576110c9611075565b5b80604052505050565b5f6110dc610f81565b90506110e882826110a2565b919050565b5f67ffffffffffffffff82111561110757611106611075565b5b61111082611065565b9050602081019050919050565b828183375f83830152505050565b5f61113d611138846110ed565b6110d3565b90508281526020810184848401111561115957611158611061565b5b61116484828561111d565b509392505050565b5f82601f8301126111805761117f61105d565b5b813561119084826020860161112b565b91505092915050565b5f5f5f5f608085870312156111b1576111b0610f8a565b5b5f85013567ffffffffffffffff8111156111ce576111cd610f8e565b5b6111da8782880161116c565b94505060206111eb87828801610fb1565b93505060406111fc87828801610fb1565b925050606085013567ffffffffffffffff81111561121d5761121c610f8e565b5b6112298782880161116c565b91505092959194509250565b61123e81610f92565b82525050565b5f6020820190506112575f830184611235565b92915050565b5f6020828403121561127257611271610f8a565b5b5f61127f84828501610fb1565b91505092915050565b61129181610f92565b82525050565b5f81519050919050565b5f82825260208201905092915050565b8281835e5f83830152505050565b5f6112c982611297565b6112d381856112a1565b93506112e38185602086016112b1565b6112ec81611065565b840191505092915050565b61130081610fe4565b82525050565b5f8115159050919050565b61131a81611306565b82525050565b5f61010083015f8301516113365f860182611288565b506020830151848203602086015261134e82826112bf565b91505060408301516113636040860182611288565b5060608301516113766060860182611288565b50608083015161138960808601826112f7565b5060a083015161139c60a0860182611311565b5060c083015184820360c08601526113b482826112bf565b91505060e08301516113c960e0860182611288565b508091505092915050565b5f6020820190508181035f8301526113ec8184611320565b905092915050565b5f81519050919050565b5f82825260208201905092915050565b5f819050602082019050919050565b5f61010083015f8301516114335f860182611288565b506020830151848203602086015261144b82826112bf565b91505060408301516114606040860182611288565b5060608301516114736060860182611288565b50608083015161148660808601826112f7565b5060a083015161149960a0860182611311565b5060c083015184820360c08601526114b182826112bf565b91505060e08301516114c660e0860182611288565b508091505092915050565b5f6114dc838361141d565b905092915050565b5f602082019050919050565b5f6114fa826113f4565b61150481856113fe565b9350836020820285016115168561140e565b805f5b85811015611551578484038952815161153285826114d1565b945061153d836114e4565b925060208a01995050600181019050611519565b50829750879550505050505092915050565b5f6020820190508181035f83015261157b81846114f0565b905092915050565b5f5f6040838503121561159957611598610f8a565b5b5f6115a685828601610fb1565b92505060206115b785828601610fb1565b9150509250929050565b5f5f604083850312156115d7576115d6610f8a565b5b5f6115e48582860161100b565b92505060206115f585828601610fb1565b9150509250929050565b5f6020828403121561161457611613610f8a565b5b5f6116218482850161100b565b91505092915050565b5f81519050919050565b5f82825260208201905092915050565b5f819050602082019050919050565b5f61165e8383611288565b60208301905092915050565b5f602082019050919050565b5f6116808261162a565b61168a8185611634565b935061169583611644565b805f5b838110156116c55781516116ac8882611653565b97506116b78361166a565b925050600181019050611698565b5085935050505092915050565b5f6020820190508181035f8301526116ea8184611676565b905092915050565b5f82825260208201905092915050565b5f61170c82611297565b61171681856116f2565b93506117268185602086016112b1565b61172f81611065565b840191505092915050565b61174381610fe4565b82525050565b61175281611306565b82525050565b5f6101008201905061176c5f83018b611235565b818103602083015261177e818a611702565b905061178d6040830189611235565b61179a6060830188611235565b6117a7608083018761173a565b6117b460a0830186611749565b81810360c08301526117c68185611702565b90506117d560e0830184611235565b9998505050505050505050565b7f4e6f7420617574686f72697a65640000000000000000000000000000000000005f82015250565b5f611816600e836116f2565b9150611821826117e2565b602082019050919050565b5f6020820190508181035f8301526118438161180a565b9050919050565b7f5072696365206d757374206265203e20300000000000000000000000000000005f82015250565b5f61187e6011836116f2565b91506118898261184a565b602082019050919050565b5f6020820190508181035f8301526118ab81611872565b9050919050565b7f41726561206d757374206265203e2030000000000000000000000000000000005f82015250565b5f6118e66010836116f2565b91506118f1826118b2565b602082019050919050565b5f6020820190508181035f830152611913816118da565b9050919050565b7f4e487b71000000000000000000000000000000000000000000000000000000005f52601160045260245ffd5b5f61195182610f92565b91507fffffffffffffffffffffffffffffffffffffffffffffffffffffffffffffffff82036119835761198261191a565b5b600182019050919050565b7f4e487b71000000000000000000000000000000000000000000000000000000005f52602260045260245ffd5b5f60028204905060018216806119d257607f821691505b6020821081036119e5576119e461198e565b5b50919050565b5f819050815f5260205f209050919050565b5f6020601f8301049050919050565b5f82821b905092915050565b5f60088302611a477fffffffffffffffffffffffffffffffffffffffffffffffffffffffffffffffff82611a0c565b611a518683611a0c565b95508019841693508086168417925050509392505050565b5f819050919050565b5f611a8c611a87611a8284610f92565b611a69565b610f92565b9050919050565b5f819050919050565b611aa583611a72565b611ab9611ab182611a93565b848454611a18565b825550505050565b5f5f905090565b611ad0611ac1565b611adb818484611a9c565b505050565b5b81811015611afe57611af35f82611ac8565b600181019050611ae1565b5050565b601f821115611b4357611b14816119eb565b611b1d846119fd565b81016020851015611b2c578190505b611b40611b38856119fd565b830182611ae0565b50505b505050565b5f82821c905092915050565b5f611b635f1984600802611b48565b1980831691505092915050565b5f611b7b8383611b54565b9150826002028217905092915050565b611b9482611297565b67ffffffffffffffff811115611bad57611bac611075565b5b611bb782546119bb565b611bc2828285611b02565b5f60209050601f831160018114611bf3575f8415611be1578287015190505b611beb8582611b70565b865550611c52565b601f198416611c01866119eb565b5f5b82811015611c2857848901518255600182019150602085019450602081019050611c03565b86831015611c455784890151611c41601f891682611b54565b8355505b6001600288020188555050505b505050505050565b5f604082019050611c6d5f830185611235565b8181036020830152611c7f8184611702565b90509392505050565b5f611c9282610f92565b9150611c9d83610f92565b9250828203905081811115611cb557611cb461191a565b5b92915050565b7f4e487b71000000000000000000000000000000000000000000000000000000005f52603260045260245ffd5b7f4e6f7420746865206f776e6572000000000000000000000000000000000000005f82015250565b5f611d1c600d836116f2565b9150611d2782611ce8565b602082019050919050565b5f6020820190508181035f830152611d4981611d10565b9050919050565b5f604082019050611d635f830185611235565b611d706020830184611235565b9392505050565b5f602082019050611d8a5f830184611749565b9291505056fea264697066735822122073d797ac1c309a429e25d40a6cd4eba3e631890ef85257544f062fd8cb693ff964736f6c634300081c0033",
  "linkReferences": {},
  "deployedLinkReferences": {},
  "immutableReferences": {},
  "inputSourceName": "project/contracts/PropertyRegistry.sol",
  "buildInfoId": "solc-0_8_28-9d8fca95ac0227ea6efa76497250f5b1922ba0be"
}