{
  "_format": "hh3-artifact-1",
  "contractName": "PropertyRegistry",
  "sourceName": "contracts/PropertyRegistry.sol",
  "abi": [
    {
      "anonymous": false,
      "inputs": [
        {
          "indexed": true,
          "internalType": "uint256",
          "name": "id",
          "type": "uint256"
        },
        {
          "indexed": false,
          "internalType": "uint256",
          "name": "oldPrice",
          "type": "uint256"
        },
        {
          "indexed": false,
          "internalType": "uint256",
          "name": "newPrice",
          "type": "uint256"
        }
      ],
      "name": "PriceUpdated",
      "type": "event"
    },
    {
      "anonymous": false,
      "inputs": [
        {
          "indexed": true,
          "internalType": "uint256",
          "name": "id",
          "type": "uint256"
        },
        {
          "indexed": true,
          "internalType": "address",
          "name": "owner",
          "type": "address"
        },
        {
          "indexed": false,
          "internalType": "uint256",
          "name": "price",
          "type": "uint256"
        },
        {
          "indexed": false,
          "internalType": "string",
          "name": "location",
          "type": "string"
        }
      ],
      "name": "PropertyListed",
      "type": "event"
    },
    {
      "anonymous": false,
      "inputs": [
        {
          "indexed": true,
          "internalType": "uint256",
          "name": "id",
          "type": "uint256"
        },
        {
          "indexed": false,
          "internalType": "bool",
          "name": "isForSale",
          "type": "bool"
        }
      ],
      "name": "PropertyStatusChanged",
      "type": "event"
    },
    {
      "inputs": [],
      "name": "getAllProperties",
      "outputs": [
        {
          "components": [
            {
              "internalType": "uint256",
              "name": "id",
              "type": "uint256"
            },
            {
              "internalType": "string",
              "name": "location",
              "type": "string"
            },
            {
              "internalType": "uint256",
              "name": "areaSqFt",
              "type": "uint256"
            },
            {
              "internalType": "uint256",
              "name": "price",
              "type": "uint256"
            },
            {
              "internalType": "address",
              "name": "owner",
              "type": "address"
            },
            {
              "internalType": "bool",
              "name": "isForSale",
              "type": "bool"
            },
            {
              "internalType": "string",
              "name": "ipfsHash",
              "type": "string"
            },
            {
              "internalType": "uint256",
              "name": "listedAt",
              "type": "uint256"
            }
          ],
          "internalType": "struct PropertyRegistry.Property[]",
          "name": "",
          "type": "tuple[]"
        }
      ],
      "stateMutability": "view",
      "type": "function"
    },
    {
      "inputs": [
        {
          "internalType": "address",
          "name": "_owner",
          "type": "address"
        }
      ],
      "name": "getOwnerProperties",
      "outputs": [
        {
          "internalType": "uint256[]",
          "name": "",
          "type": "uint256[]"
        }
      ],
      "stateMutability": "view",
      "type": "function"
    },
    {
      "inputs": [
        {
          "internalType": "uint256",
          "name": "_id",
          "type": "uint256"
        }
      ],
      "name": "getProperty",
      "outputs": [
        {
          "components": [
            {
              "internalType": "uint256",
              "name": "id",
              "type": "uint256"
            },
            {
              "internalType": "string",
              "name": "location",
              "type": "string"
            },
            {
              "internalType": "uint256",
              "name": "areaSqFt",
              "type": "uint256"
            },
            {
              "internalType": "uint256",
              "name": "price",
              "type": "uint256"
            },
            {
              "internalType": "address",
              "name": "owner",
              "type": "address"
            },
            {
              "internalType": "bool",
              "name": "isForSale",
              "type": "bool"
            },
            {
              "internalType": "string",
              "name": "ipfsHash",
              "type": "string"
            },
            {
              "internalType": "uint256",
              "name": "listedAt",
              "type": "uint256"
            }
          ],
          "internalType": "struct PropertyRegistry.Property",
          "name": "",
          "type": "tuple"
        }
      ],
      "stateMutability": "view",
      "type": "function"
    },
    {
      "inputs": [
        {
          "internalType": "string",
          "name": "_location",
          "type": "string"
        },
        {
          "internalType": "uint256",
          "name": "_areaSqFt",
          "type": "uint256"
        },
        {
          "internalType": "uint256",
          "name": "_price",
          "type": "uint256"
        },
        {
          "internalType": "string",
          "name": "_ipfsHash",
          "type": "string"
        }
      ],
      "name": "listProperty",
      "outputs": [
        {
          "internalType": "uint256",
          "name": "",
          "type": "uint256"
        }
      ],
      "stateMutability": "nonpayable",
      "type": "function"
    },
    {
      "inputs": [
        {
          "internalType": "address",
          "name": "",
          "type": "address"
        },
        {
          "internalType": "uint256",
          "name": "",
          "type": "uint256"
        }
      ],
      "name": "ownerProperties",
      "outputs": [
        {
          "internalType": "uint256",
          "name": "",
          "type": "uint256"
        }
      ],
      "stateMutability": "view",
      "type": "function"
    },
    {
      "inputs": [
        {
          "internalType": "uint256",
          "name": "",
          "type": "uint256"
        }
      ],
      "name": "properties",
      "outputs": [
        {
          "internalType": "uint256",
          "name": "id",
          "type": "uint256"
        },
        {
          "internalType": "string",
          "name": "location",
          "type": "string"
        },
        {
          "internalType": "uint256",
          "name": "areaSqFt",
          "type": "uint256"
        },
        {
          "internalType": "uint256",
          "name": "price",
          "type": "uint256"
        },
        {
          "internalType": "address",
          "name": "owner",
          "type": "address"
        },
        {
          "internalType": "bool",
          "name": "isForSale",
          "type": "bool"
        },
        {
          "internalType": "string",
          "name": "ipfsHash",
          "type": "string"
        },
        {
          "internalType": "uint256",
          "name": "listedAt",
          "type": "uint256"
        }
      ],
      "stateMutability": "view",
      "type": "function"
    },
    {
      "inputs": [],
      "name": "propertyCount",
      "outputs": [
        {
          "internalType": "uint256",
          "name": "",
          "type": "uint256"
        }
      ],
      "stateMutability": "view",
      "type": "function"
    },
    {
      "inputs": [
        {
          "internalType": "uint256",
          "name": "_id",
          "type": "uint256"
        }
      ],
      "name": "toggleSaleStatus",
      "outputs": [],
      "stateMutability": "nonpayable",
      "type": "function"
    },
    {
      "inputs": [
        {
          "internalType": "uint256",
          "name": "_id",
          "type": "uint256"
        },
        {
          "internalType": "address",
          "name": "_newOwner",
          "type": "address"
        }
      ],
      "name": "transferOwnership",
      "outputs": [],
      "stateMutability": "nonpayable",
      "type": "function"
    },
    {
      "inputs": [
        {
          "internalType": "uint256",
          "name": "_id",
          "type": "uint256"
        },
        {
          "internalType": "uint256",
          "name": "_newPrice",
          "type": "uint256"
        }
      ],
      "name": "updatePrice",
      "outputs": [],
      "stateMutability": "nonpayable",
      "type": "function"
    }
  ],
  "bytecode": "0x6080604052348015600e575f5ffd5b506111348061001c5f395ff3fe608060405234801561000f575f5ffd5b506004361061009b575f3560e01c80638f48bd5b116100635780638f48bd5b14610122578063a078c1a014610135578063c361a33514610148578063cb64489714610150578063f7b1080814610170575f5ffd5b806329507f731461009f5780632d97bd66146100b457806332665ffb146100da5780633d51402c146100fa57806382367b2d1461010f575b5f5ffd5b6100b26100ad366004610bb7565b610197565b005b6100c76100c2366004610c80565b61023e565b6040519081526020015b60405180910390f35b6100ed6100e8366004610cf7565b610417565b6040516100d19190610dc6565b6101026105ae565b6040516100d19190610ddf565b6100b261011d366004610e42565b6107dc565b6100c7610130366004610e62565b61088f565b6100b2610143366004610cf7565b6108ba565b6100c75f5481565b61016361015e366004610e8a565b61098b565b6040516100d19190610ea3565b61018361017e366004610cf7565b6109f4565b6040516100d1989796959493929190610ee5565b5f828152600160205260409020600401546001600160a01b031633146101f55760405162461bcd60e51b815260206004820152600e60248201526d139bdd08185d5d1a1bdc9a5e995960921b60448201526064015b60405180910390fd5b5f82815260016020818152604080842060040180546001600160a81b0319166001600160a01b039096169586179055938352600281529282208054918201815582529190200155565b5f5f83116102825760405162461bcd60e51b815260206004820152601160248201527005072696365206d757374206265203e203607c1b60448201526064016101ec565b5f84116102c45760405162461bcd60e51b815260206004820152601060248201526f041726561206d757374206265203e20360841b60448201526064016101ec565b5f805490806102d283610f60565b909155505060408051610100810182525f805480835260208084018a81528486018a905260608501899052336080860152600160a0860181905260c086018990524260e087015292845290829052939091208251815592519192919082019061033b9082610ff6565b506040820151600282015560608201516003820155608082015160048201805460a08501511515600160a01b026001600160a81b03199091166001600160a01b039093169290921791909117905560c0820151600582019061039d9082610ff6565b5060e09190910151600690910155335f818152600260209081526040808320835481546001810183559185529284200191909155905490517f0770dfc6b6ddb0c8cea76fc6a9faa432a8f4a1a572b7b9ce0ebaf957b1098b37906104049087908a906110b1565b60405180910390a3505f54949350505050565b61041f610b52565b5f82815260016020818152604092839020835161010081019094528054845291820180549184019161045090610f78565b80601f016020809104026020016040519081016040528092919081815260200182805461047c90610f78565b80156104c75780601f1061049e576101008083540402835291602001916104c7565b820191905f5260205f20905b8154815290600101906020018083116104aa57829003601f168201915b5050509183525050600282015460208201526003820154604082015260048201546001600160a01b0381166060830152600160a01b900460ff161515608082015260058201805460a09092019161051d90610f78565b80601f016020809104026020016040519081016040528092919081815260200182805461054990610f78565b80156105945780601f1061056b57610100808354040283529160200191610594565b820191905f5260205f20905b81548152906001019060200180831161057757829003601f168201915b505050505081526020016006820154815250509050919050565b60605f5f5467ffffffffffffffff8111156105cb576105cb610be1565b60405190808252806020026020018201604052801561060457816020015b6105f1610b52565b8152602001906001900390816105e95790505b50905060015b5f5481116107d6575f81815260016020818152604092839020835161010081019094528054845291820180549184019161064390610f78565b80601f016020809104026020016040519081016040528092919081815260200182805461066f90610f78565b80156106ba5780601f10610691576101008083540402835291602001916106ba565b820191905f5260205f20905b81548152906001019060200180831161069d57829003601f168201915b5050509183525050600282015460208201526003820154604082015260048201546001600160a01b0381166060830152600160a01b900460ff161515608082015260058201805460a09092019161071090610f78565b80601f016020809104026020016040519081016040528092919081815260200182805461073c90610f78565b80156107875780601f1061075e57610100808354040283529160200191610787565b820191905f5260205f20905b81548152906001019060200180831161076a57829003601f168201915b50505050508152602001600682015481525050826001836107a891906110d1565b815181106107b8576107b86110ea565b602002602001018190525080806107ce90610f60565b91505061060a565b50919050565b5f8281526001602052604090206004015482906001600160a01b031633146108365760405162461bcd60e51b815260206004820152600d60248201526c2737ba103a34329037bbb732b960991b60448201526064016101ec565b5f8381526001602090815260409182902060030180549085905582518181529182018590529185917f15819dd2fd9f6418b142e798d08a18d0bf06ea368f4480b7b0d3f75bd966bc48910160405180910390a250505050565b6002602052815f5260405f2081815481106108a8575f80fd5b905f5260205f20015f91509150505481565b5f8181526001602052604090206004015481906001600160a01b031633146109145760405162461bcd60e51b815260206004820152600d60248201526c2737ba103a34329037bbb732b960991b60448201526064016101ec565b5f8281526001602052604090819020600401805460ff600160a01b808304821615810260ff60a01b199093169290921792839055925185937f4913279a14e045717d5dc101f12736a9f31ea76548d0c3c8283cf449706d9c649361097f939004161515815260200190565b60405180910390a25050565b6001600160a01b0381165f908152600260209081526040918290208054835181840281018401909452808452606093928301828280156109e857602002820191905f5260205f20905b8154815260200190600101908083116109d4575b50505050509050919050565b600160208190525f918252604090912080549181018054610a1490610f78565b80601f0160208091040260200160405190810160405280929190818152602001828054610a4090610f78565b8015610a8b5780601f10610a6257610100808354040283529160200191610a8b565b820191905f5260205f20905b815481529060010190602001808311610a6e57829003601f168201915b50505050600283015460038401546004850154600586018054959693959294506001600160a01b03821693600160a01b90920460ff1692610acb90610f78565b80601f0160208091040260200160405190810160405280929190818152602001828054610af790610f78565b8015610b425780601f10610b1957610100808354040283529160200191610b42565b820191905f5260205f20905b815481529060010190602001808311610b2557829003601f168201915b5050505050908060060154905088565b6040518061010001604052805f8152602001606081526020015f81526020015f81526020015f6001600160a01b031681526020015f15158152602001606081526020015f81525090565b80356001600160a01b0381168114610bb2575f5ffd5b919050565b5f5f60408385031215610bc8575f5ffd5b82359150610bd860208401610b9c565b90509250929050565b634e487b7160e01b5f52604160045260245ffd5b5f82601f830112610c04575f5ffd5b813567ffffffffffffffff811115610c1e57610c1e610be1565b604051601f8201601f19908116603f0116810167ffffffffffffffff81118282101715610c4d57610c4d610be1565b604052818152838201602001851015610c64575f5ffd5b816020850160208301375f918101602001919091529392505050565b5f5f5f5f60808587031215610c93575f5ffd5b843567ffffffffffffffff811115610ca9575f5ffd5b610cb587828801610bf5565b9450506020850135925060408501359150606085013567ffffffffffffffff811115610cdf575f5ffd5b610ceb87828801610bf5565b91505092959194509250565b5f60208284031215610d07575f5ffd5b5035919050565b5f81518084528060208401602086015e5f602082860101526020601f19601f83011685010191505092915050565b805182525f60208201516101006020850152610d5c610100850182610d0e565b9050604083015160408501526060830151606085015260018060a01b03608084015116608085015260a0830151610d9760a086018215159052565b5060c083015184820360c0860152610daf8282610d0e565b91505060e083015160e08501528091505092915050565b602081525f610dd86020830184610d3c565b9392505050565b5f602082016020835280845180835260408501915060408160051b8601019250602086015f5b82811015610e3657603f19878603018452610e21858351610d3c565b94506020938401939190910190600101610e05565b50929695505050505050565b5f5f60408385031215610e53575f5ffd5b50508035926020909101359150565b5f5f60408385031215610e73575f5ffd5b610e7c83610b9c565b946020939093013593505050565b5f60208284031215610e9a575f5ffd5b610dd882610b9c565b602080825282518282018190525f918401906040840190835b81811015610eda578351835260209384019390920191600101610ebc565b509095945050505050565b88815261010060208201525f610eff61010083018a610d0e565b60408301899052606083018890526001600160a01b038716608084015285151560a084015282810360c0840152610f368186610d0e565b9150508260e08301529998505050505050505050565b634e487b7160e01b5f52601160045260245ffd5b5f60018201610f7157610f71610f4c565b5060010190565b600181811c90821680610f8c57607f821691505b6020821081036107d657634e487b7160e01b5f52602260045260245ffd5b601f821115610ff157805f5260205f20601f840160051c81016020851015610fcf5750805b601f840160051c820191505b81811015610fee575f8155600101610fdb565b50505b505050565b815167ffffffffffffffff81111561101057611010610be1565b6110248161101e8454610f78565b84610faa565b6020601f821160018114611056575f831561103f5750848201515b5f19600385901b1c1916600184901b178455610fee565b5f84815260208120601f198516915b828110156110855787850151825560209485019460019092019101611065565b50848210156110a257868401515f19600387901b60f8161c191681555b50505050600190811b01905550565b828152604060208201525f6110c96040830184610d0e565b949350505050565b818103818111156110e4576110e4610f4c565b92915050565b634e487b7160e01b5f52603260045260245ffdfea264697066735822122073b265be4f90566a19d12be4783bd07423fdb5876a2c2d55ab8b5627d44ee92364736f6c634300081c0033",
  "linkReferences": {},
  "deployedLinkReferences": {},
  "immutableReferences": {},
  "inputSourceName": "project/contracts/PropertyRegistry.sol",
  "buildInfoId": "solc-0_8_28-3832c304ca0f3bea676e495abb471e452f247322"
}