{
  "_format": "hh3-artifact-1",
  "contractName": "FractionalOwnership",
  "sourceName": "contracts/FractionalOwnership.sol",
  "abi": [
    {
      "inputs": [],
      "stateMutability": "nonpayable",
      "type": "constructor"
    },
    {
      "inputs": [
        {
          "internalType": "address",
          "name": "owner",
          "type": "address"
        }
      ],
      "name": "OwnableInvalidOwner",
      "type": "error"
    },
    {
      "inputs": [
        {
          "internalType": "address",
          "name": "account",
          "type": "address"
        }
      ],
      "name": "OwnableUnauthorizedAccount",
      "type": "error"
    },
    {
      "anonymous": false,
      "inputs": [
        {
          "indexed": true,
          "internalType": "address",
          "name": "previousOwner",
          "type": "address"
        },
        {
          "indexed": true,
          "internalType": "address",
          "name": "newOwner",
          "type": "address"
        }
      ],
      "name": "OwnershipTransferred",
      "type": "event"
    },
    {
      "anonymous": false,
      "inputs": [
        {
          "indexed": true,
          "internalType": "uint256",
          "name": "propertyId",
          "type": "uint256"
        },
        {
          "indexed": false,
          "internalType": "string",
          "name": "location",
          "type": "string"
        },
        {
          "indexed": false,
          "internalType": "uint256",
          "name": "totalShares",
          "type": "uint256"
        },
        {
          "indexed": false,
          "internalType": "uint256",
          "name": "pricePerShare",
          "type": "uint256"
        },
        {
          "indexed": false,
          "internalType": "address",
          "name": "creator",
          "type": "address"
        }
      ],
      "name": "PropertyTokenized",
      "type": "event"
    },
    {
      "anonymous": false,
      "inputs": [
        {
          "indexed": true,
          "internalType": "uint256",
          "name": "propertyId",
          "type": "uint256"
        },
        {
          "indexed": true,
          "internalType": "address",
          "name": "buyer",
          "type": "address"
        },
        {
          "indexed": false,
          "internalType": "uint256",
          "name": "shares",
          "type": "uint256"
        },
        {
          "indexed": false,
          "internalType": "uint256",
          "name": "totalPaid",
          "type": "uint256"
        }
      ],
      "name": "SharesPurchased",
      "type": "event"
    },
    {
      "anonymous": false,
      "inputs": [
        {
          "indexed": true,
          "internalType": "uint256",
          "name": "propertyId",
          "type": "uint256"
        },
        {
          "indexed": true,
          "internalType": "address",
          "name": "from",
          "type": "address"
        },
        {
          "indexed": true,
          "internalType": "address",
          "name": "to",
          "type": "address"
        },
        {
          "indexed": false,
          "internalType": "uint256",
          "name": "shares",
          "type": "uint256"
        }
      ],
      "name": "SharesTransferred",
      "type": "event"
    },
    {
      "inputs": [
        {
          "internalType": "uint256",
          "name": "_propertyId",
          "type": "uint256"
        },
        {
          "internalType": "uint256",
          "name": "_shares",
          "type": "uint256"
        }
      ],
      "name": "buyShares",
      "outputs": [],
      "stateMutability": "payable",
      "type": "function"
    },
    {
      "inputs": [
        {
          "internalType": "uint256",
          "name": "",
          "type": "uint256"
        }
      ],
      "name": "fractionalProperties",
      "outputs": [
        {
          "internalType": "uint256",
          "name": "propertyId",
          "type": "uint256"
        },
        {
          "internalType": "string",
          "name": "location",
          "type": "string"
        },
        {
          "internalType": "uint256",
          "name": "totalShares",
          "type": "uint256"
        },
        {
          "internalType": "uint256",
          "name": "pricePerShare",
          "type": "uint256"
        },
        {
          "internalType": "address",
          "name": "creator",
          "type": "address"
        },
        {
          "internalType": "bool",
          "name": "isActive",
          "type": "bool"
        },
        {
          "internalType": "uint256",
          "name": "createdAt",
          "type": "uint256"
        }
      ],
      "stateMutability": "view",
      "type": "function"
    },
    {
      "inputs": [],
      "name": "getAllFractionalProperties",
      "outputs": [
        {
          "components": [
            {
              "internalType": "uint256",
              "name": "propertyId",
              "type": "uint256"
            },
            {
              "internalType": "string",
              "name": "location",
              "type": "string"
            },
            {
              "internalType": "uint256",
              "name": "totalShares",
              "type": "uint256"
            },
            {
              "internalType": "uint256",
              "name": "pricePerShare",
              "type": "uint256"
            },
            {
              "internalType": "address",
              "name": "creator",
              "type": "address"
            },
            {
              "internalType": "bool",
              "name": "isActive",
              "type": "bool"
            },
            {
              "internalType": "uint256",
              "name": "createdAt",
              "type": "uint256"
            }
          ],
          "internalType": "struct FractionalOwnership.FractionalProperty[]",
          "name": "",
          "type": "tuple[]"
        }
      ],
      "stateMutability": "view",
      "type": "function"
    },
    {
      "inputs": [
        {
          "internalType": "uint256",
          "name": "_propertyId",
          "type": "uint256"
        }
      ],
      "name": "getAvailableShares",
      "outputs": [
        {
          "internalType": "uint256",
          "name": "",
          "type": "uint256"
        }
      ],
      "stateMutability": "view",
      "type": "function"
    },
    {
      "inputs": [
        {
          "internalType": "uint256",
          "name": "_propertyId",
          "type": "uint256"
        },
        {
          "internalType": "address",
          "name": "_holder",
          "type": "address"
        }
      ],
      "name": "getMyShares",
      "outputs": [
        {
          "internalType": "uint256",
          "name": "",
          "type": "uint256"
        }
      ],
      "stateMutability": "view",
      "type": "function"
    },
    {
      "inputs": [
        {
          "internalType": "uint256",
          "name": "_propertyId",
          "type": "uint256"
        },
        {
          "internalType": "address",
          "name": "_holder",
          "type": "address"
        }
      ],
      "name": "getOwnershipPercent",
      "outputs": [
        {
          "internalType": "uint256",
          "name": "",
          "type": "uint256"
        }
      ],
      "stateMutability": "view",
      "type": "function"
    },
    {
      "inputs": [],
      "name": "owner",
      "outputs": [
        {
          "internalType": "address",
          "name": "",
          "type": "address"
        }
      ],
      "stateMutability": "view",
      "type": "function"
    },
    {
      "inputs": [],
      "name": "propertyCount",
      "outputs": [
        {
          "internalType": "uint256",
          "name": "",
          "type": "uint256"
        }
      ],
      "stateMutability": "view",
      "type": "function"
    },
    {
      "inputs": [],
      "name": "renounceOwnership",
      "outputs": [],
      "stateMutability": "nonpayable",
      "type": "function"
    },
    {
      "inputs": [
        {
          "internalType": "uint256",
          "name": "",
          "type": "uint256"
        },
        {
          "internalType": "address",
          "name": "",
          "type": "address"
        }
      ],
      "name": "sharesOwned",
      "outputs": [
        {
          "internalType": "uint256",
          "name": "",
          "type": "uint256"
        }
      ],
      "stateMutability": "view",
      "type": "function"
    },
    {
      "inputs": [
        {
          "internalType": "uint256",
          "name": "",
          "type": "uint256"
        }
      ],
      "name": "sharesSold",
      "outputs": [
        {
          "internalType": "uint256",
          "name": "",
          "type": "uint256"
        }
      ],
      "stateMutability": "view",
      "type": "function"
    },
    {
      "inputs": [
        {
          "internalType": "string",
          "name": "_location",
          "type": "string"
        },
        {
          "internalType": "uint256",
          "name": "_totalShares",
          "type": "uint256"
        },
        {
          "internalType": "uint256",
          "name": "_pricePerShareEther",
          "type": "uint256"
        }
      ],
      "name": "tokenizeProperty",
      "outputs": [
        {
          "internalType": "uint256",
          "name": "",
          "type": "uint256"
        }
      ],
      "stateMutability": "nonpayable",
      "type": "function"
    },
    {
      "inputs": [
        {
          "internalType": "address",
          "name": "newOwner",
          "type": "address"
        }
      ],
      "name": "transferOwnership",
      "outputs": [],
      "stateMutability": "nonpayable",
      "type": "function"
    },
    {
      "inputs": [
        {
          "internalType": "uint256",
          "name": "_propertyId",
          "type": "uint256"
        },
        {
          "internalType": "address",
          "name": "_to",
          "type": "address"
        },
        {
          "internalType": "uint256",
          "name": "_shares",
          "type": "uint256"
        }
      ],
      "name": "transferShares",
      "outputs": [],
      "stateMutability": "nonpayable",
      "type": "function"
    }
  ],
  "bytecode": "0x6080604052348015600e575f5ffd5b503380603357604051631e4fbdf760e01b81525f600482015260240160405180910390fd5b603a81603f565b50608e565b5f80546001600160a01b038381166001600160a01b0319831681178455604051919092169283917f8be0079c531659141344cd1fd0a4f28419497f9722a3daafe3b4186f6b6457e09190a35050565b6111a78061009b5f395ff3fe6080604052600436106100d9575f3560e01c80638da5cb5b1161007c578063db70d47511610057578063db70d47514610244578063dcd9d12d14610265578063dfa15c8714610284578063f2fde38b146102c5575f5ffd5b80638da5cb5b146101f6578063beebc5da1461021c578063c361a3351461022f575f5ffd5b80635ff85d31116100b75780635ff85d3114610177578063715018a61461019657806373e7800d146101ac57806384b9a6e6146101d7575f5ffd5b80631b9e26c9146100dd5780632fb15aff1461012657806355a24d3b14610158575b5f5ffd5b3480156100e8575f5ffd5b506101136100f7366004610cb2565b600360209081525f928352604080842090915290825290205481565b6040519081526020015b60405180910390f35b348015610131575f5ffd5b50610145610140366004610cdc565b6102e4565b60405161011d9796959493929190610d21565b348015610163575f5ffd5b50610113610172366004610d82565b6103b5565b348015610182575f5ffd5b50610113610191366004610cb2565b610590565b3480156101a1575f5ffd5b506101aa6105f8565b005b3480156101b7575f5ffd5b506101136101c6366004610cdc565b60046020525f908152604090205481565b3480156101e2575f5ffd5b506101aa6101f1366004610e42565b61060b565b348015610201575f5ffd5b505f546040516001600160a01b03909116815260200161011d565b6101aa61022a366004610e75565b610759565b34801561023a575f5ffd5b5061011360015481565b34801561024f575f5ffd5b506102586109d5565b60405161011d9190610e95565b348015610270575f5ffd5b5061011361027f366004610cdc565b610bb1565b34801561028f575f5ffd5b5061011361029e366004610cb2565b5f9182526003602090815260408084206001600160a01b0393909316845291905290205490565b3480156102d0575f5ffd5b506101aa6102df366004610f4c565b610bdf565b60026020525f90815260409020805460018201805491929161030590610f65565b80601f016020809104026020016040519081016040528092919081815260200182805461033190610f65565b801561037c5780601f106103535761010080835404028352916020019161037c565b820191905f5260205f20905b81548152906001019060200180831161035f57829003601f168201915b50505050600283015460038401546004850154600590950154939491939092506001600160a01b03821691600160a01b900460ff169087565b5f5f83116103ff5760405162461bcd60e51b81526020600482015260126024820152710536861726573206d757374206265203e20360741b60448201526064015b60405180910390fd5b5f82116104425760405162461bcd60e51b815260206004820152601160248201527005072696365206d757374206265203e203607c1b60448201526064016103f6565b60018054905f61045183610fab565b91905055506040518060e00160405280600154815260200185815260200184815260200183670de0b6b3a76400006104899190610fc3565b8152602001336001600160a01b031681526020016001151581526020014281525060025f60015481526020019081526020015f205f820151815f015560208201518160010190816104da9190611026565b506040820151600282015560608201516003820155608082015160048201805460a08501511515600160a01b026001600160a81b03199091166001600160a01b039093169290921791909117905560c0909101516005909101556001547f854ea451fa75d4e0651d4f321b0e94ee8e91a415f1b6e2d03821d0964097ef64858561056c86670de0b6b3a7640000610fc3565b3360405161057d94939291906110e1565b60405180910390a2506001549392505050565b5f82815260026020819052604082209081015482036105b2575f9150506105f2565b60028101545f8581526003602090815260408083206001600160a01b03881684529091529020546105e4906064610fc3565b6105ee9190611118565b9150505b92915050565b610600610c1c565b6106095f610c48565b565b5f8381526003602090815260408083203384529091529020548111156106675760405162461bcd60e51b81526020600482015260116024820152704e6f7420656e6f7567682073686172657360781b60448201526064016103f6565b6001600160a01b0382166106af5760405162461bcd60e51b815260206004820152600f60248201526e496e76616c6964206164647265737360881b60448201526064016103f6565b5f838152600360209081526040808320338452909152812080548392906106d7908490611137565b90915550505f8381526003602090815260408083206001600160a01b03861684529091528120805483929061070d90849061114a565b90915550506040518181526001600160a01b03831690339085907f78dc4ab325d618a4100f0b44da2f25725cd94b780060f6b9e87065e9c0b12ebd9060200160405180910390a4505050565b5f8281526002602052604090206004810154600160a01b900460ff166107b75760405162461bcd60e51b815260206004820152601360248201527250726f7065727479206e6f742061637469766560681b60448201526064016103f6565b5f82116108065760405162461bcd60e51b815260206004820152601960248201527f4d75737420627579206174206c6561737420312073686172650000000000000060448201526064016103f6565b60028101545f8481526004602052604090205461082490849061114a565b11156108725760405162461bcd60e51b815260206004820152601b60248201527f4e6f7420656e6f7567682073686172657320617661696c61626c65000000000060448201526064016103f6565b5f8282600301546108839190610fc3565b9050803410156108cc5760405162461bcd60e51b8152602060048201526014602482015273125b9cdd59999a58da595b9d081c185e5b595b9d60621b60448201526064016103f6565b60048201546040516001600160a01b039091169082156108fc029083905f818181858888f19350505050158015610905573d5f5f3e3d5ffd5b508034111561094357336108fc61091c8334611137565b6040518115909202915f818181858888f19350505050158015610941573d5f5f3e3d5ffd5b505b5f8481526003602090815260408083203384529091528120805485929061096b90849061114a565b90915550505f848152600460205260408120805485929061098d90849061114a565b90915550506040805184815260208101839052339186917fce81571c08c76465bdf390ad1abe80af8c51c6c4566e3485f9395f13d5ad6328910160405180910390a350505050565b60605f60015467ffffffffffffffff8111156109f3576109f3610d6e565b604051908082528060200260200182016040528015610a6957816020015b610a566040518060e001604052805f8152602001606081526020015f81526020015f81526020015f6001600160a01b031681526020015f151581526020015f81525090565b815260200190600190039081610a115790505b50905060015b6001548111610bab5760025f8281526020019081526020015f206040518060e00160405290815f8201548152602001600182018054610aad90610f65565b80601f0160208091040260200160405190810160405280929190818152602001828054610ad990610f65565b8015610b245780601f10610afb57610100808354040283529160200191610b24565b820191905f5260205f20905b815481529060010190602001808311610b0757829003601f168201915b5050509183525050600282015460208201526003820154604082015260048201546001600160a01b0381166060830152600160a01b900460ff161515608082015260059091015460a09091015282610b7d600184611137565b81518110610b8d57610b8d61115d565b60200260200101819052508080610ba390610fab565b915050610a6f565b50919050565b5f8181526002602081815260408084206004909252832054918101549091610bd891611137565b9392505050565b610be7610c1c565b6001600160a01b038116610c1057604051631e4fbdf760e01b81525f60048201526024016103f6565b610c1981610c48565b50565b5f546001600160a01b031633146106095760405163118cdaa760e01b81523360048201526024016103f6565b5f80546001600160a01b038381166001600160a01b0319831681178455604051919092169283917f8be0079c531659141344cd1fd0a4f28419497f9722a3daafe3b4186f6b6457e09190a35050565b80356001600160a01b0381168114610cad575f5ffd5b919050565b5f5f60408385031215610cc3575f5ffd5b82359150610cd360208401610c97565b90509250929050565b5f60208284031215610cec575f5ffd5b5035919050565b5f81518084528060208401602086015e5f602082860101526020601f19601f83011685010191505092915050565b87815260e060208201525f610d3960e0830189610cf3565b60408301979097525060608101949094526001600160a01b03929092166080840152151560a083015260c09091015292915050565b634e487b7160e01b5f52604160045260245ffd5b5f5f5f60608486031215610d94575f5ffd5b833567ffffffffffffffff811115610daa575f5ffd5b8401601f81018613610dba575f5ffd5b803567ffffffffffffffff811115610dd457610dd4610d6e565b604051601f8201601f19908116603f0116810167ffffffffffffffff81118282101715610e0357610e03610d6e565b604052818152828201602001881015610e1a575f5ffd5b816020840160208301375f602092820183015297908601359650604090950135949350505050565b5f5f5f60608486031215610e54575f5ffd5b83359250610e6460208501610c97565b929592945050506040919091013590565b5f5f60408385031215610e86575f5ffd5b50508035926020909101359150565b5f602082016020835280845180835260408501915060408160051b8601019250602086015f5b82811015610f4057603f19878603018452815180518652602081015160e06020880152610eeb60e0880182610cf3565b60408381015190890152606080840151908901526080808401516001600160a01b03169089015260a08084015115159089015260c0928301519290970191909152506020938401939190910190600101610ebb565b50929695505050505050565b5f60208284031215610f5c575f5ffd5b610bd882610c97565b600181811c90821680610f7957607f821691505b602082108103610bab57634e487b7160e01b5f52602260045260245ffd5b634e487b7160e01b5f52601160045260245ffd5b5f60018201610fbc57610fbc610f97565b5060010190565b80820281158282048414176105f2576105f2610f97565b601f82111561102157805f5260205f20601f840160051c81016020851015610fff5750805b601f840160051c820191505b8181101561101e575f815560010161100b565b50505b505050565b815167ffffffffffffffff81111561104057611040610d6e565b6110548161104e8454610f65565b84610fda565b6020601f821160018114611086575f831561106f5750848201515b5f19600385901b1c1916600184901b17845561101e565b5f84815260208120601f198516915b828110156110b55787850151825560209485019460019092019101611095565b50848210156110d257868401515f19600387901b60f8161c191681555b50505050600190811b01905550565b608081525f6110f36080830187610cf3565b60208301959095525060408101929092526001600160a01b0316606090910152919050565b5f8261113257634e487b7160e01b5f52601260045260245ffd5b500490565b818103818111156105f2576105f2610f97565b808201808211156105f2576105f2610f97565b634e487b7160e01b5f52603260045260245ffdfea26469706673582212209c4cbe39dd318472138031a232ca2d4755da0a090eb1b48c71553674c5dffd2c64736f6c634300081c0033",
  "linkReferences": {},
  "deployedLinkReferences": {},
  "immutableReferences": {},
  "inputSourceName": "project/contracts/FractionalOwnership.sol",
  "buildInfoId": "solc-0_8_28-d338399ae7ed80c77c76fd41d1313f0c2d654f9b"
}