{
  "_format": "hh3-artifact-1",
  "contractName": "Marketplace",
  "sourceName": "contracts/Marketplace.sol",
  "abi": [
    {
      "inputs": [
        {
          "internalType": "address",
          "name": "_registry",
          "type": "address"
        },
        {
          "internalType": "address",
          "name": "_nft",
          "type": "address"
        }
      ],
      "stateMutability": "nonpayable",
      "type": "constructor"
    },
    {
      "anonymous": false,
      "inputs": [
        {
          "indexed": true,
          "internalType": "uint256",
          "name": "propertyId",
          "type": "uint256"
        },
        {
          "indexed": true,
          "internalType": "address",
          "name": "buyer",
          "type": "address"
        }
      ],
      "name": "SaleCancelled",
      "type": "event"
    },
    {
      "anonymous": false,
      "inputs": [
        {
          "indexed": true,
          "internalType": "uint256",
          "name": "propertyId",
          "type": "uint256"
        },
        {
          "indexed": true,
          "internalType": "address",
          "name": "buyer",
          "type": "address"
        },
        {
          "indexed": false,
          "internalType": "uint256",
          "name": "price",
          "type": "uint256"
        }
      ],
      "name": "SaleCompleted",
      "type": "event"
    },
    {
      "anonymous": false,
      "inputs": [
        {
          "indexed": true,
          "internalType": "uint256",
          "name": "propertyId",
          "type": "uint256"
        },
        {
          "indexed": true,
          "internalType": "address",
          "name": "buyer",
          "type": "address"
        },
        {
          "indexed": false,
          "internalType": "uint256",
          "name": "amount",
          "type": "uint256"
        }
      ],
      "name": "SaleInitiated",
      "type": "event"
    },
    {
      "inputs": [
        {
          "internalType": "uint256",
          "name": "_propertyId",
          "type": "uint256"
        }
      ],
      "name": "cancelSale",
      "outputs": [],
      "stateMutability": "nonpayable",
      "type": "function"
    },
    {
      "inputs": [
        {
          "internalType": "uint256",
          "name": "_propertyId",
          "type": "uint256"
        },
        {
          "internalType": "string",
          "name": "_tokenURI",
          "type": "string"
        }
      ],
      "name": "completeSale",
      "outputs": [],
      "stateMutability": "nonpayable",
      "type": "function"
    },
    {
      "inputs": [
        {
          "internalType": "uint256",
          "name": "",
          "type": "uint256"
        }
      ],
      "name": "escrows",
      "outputs": [
        {
          "internalType": "uint256",
          "name": "propertyId",
          "type": "uint256"
        },
        {
          "internalType": "address",
          "name": "buyer",
          "type": "address"
        },
        {
          "internalType": "uint256",
          "name": "amount",
          "type": "uint256"
        },
        {
          "internalType": "bool",
          "name": "released",
          "type": "bool"
        }
      ],
      "stateMutability": "view",
      "type": "function"
    },
    {
      "inputs": [],
      "name": "feeRecipient",
      "outputs": [
        {
          "internalType": "address",
          "name": "",
          "type": "address"
        }
      ],
      "stateMutability": "view",
      "type": "function"
    },
    {
      "inputs": [
        {
          "internalType": "uint256",
          "name": "_propertyId",
          "type": "uint256"
        }
      ],
      "name": "getEscrow",
      "outputs": [
        {
          "components": [
            {
              "internalType": "uint256",
              "name": "propertyId",
              "type": "uint256"
            },
            {
              "internalType": "address",
              "name": "buyer",
              "type": "address"
            },
            {
              "internalType": "uint256",
              "name": "amount",
              "type": "uint256"
            },
            {
              "internalType": "bool",
              "name": "released",
              "type": "bool"
            }
          ],
          "internalType": "struct Marketplace.Escrow",
          "name": "",
          "type": "tuple"
        }
      ],
      "stateMutability": "view",
      "type": "function"
    },
    {
      "inputs": [
        {
          "internalType": "uint256",
          "name": "_propertyId",
          "type": "uint256"
        }
      ],
      "name": "initiatePurchase",
      "outputs": [],
      "stateMutability": "payable",
      "type": "function"
    },
    {
      "inputs": [],
      "name": "nft",
      "outputs": [
        {
          "internalType": "contract PropertyNFT",
          "name": "",
          "type": "address"
        }
      ],
      "stateMutability": "view",
      "type": "function"
    },
    {
      "inputs": [],
      "name": "platformFeePercent",
      "outputs": [
        {
          "internalType": "uint256",
          "name": "",
          "type": "uint256"
        }
      ],
      "stateMutability": "view",
      "type": "function"
    },
    {
      "inputs": [],
      "name": "registry",
      "outputs": [
        {
          "internalType": "contract PropertyRegistry",
          "name": "",
          "type": "address"
        }
      ],
      "stateMutability": "view",
      "type": "function"
    }
  ],
  "bytecode": "0x6080604052600280553480156012575f5ffd5b50604051610eac380380610eac833981016040819052602f916088565b5f80546001600160a01b039384166001600160a01b031991821617909155600180549290931691811691909117909155600380549091163317905560b4565b80516001600160a01b03811681146083575f5ffd5b919050565b5f5f604083850312156098575f5ffd5b609f83606e565b915060ab60208401606e565b90509250929050565b610deb806100c15f395ff3fe608060405260043610610084575f3560e01c80637d19e596116100575780637d19e59614610178578063839ae403146102405780638c639a8514610261578063bd94b00514610284578063dd142be0146102a3575f5ffd5b8063012f52ee14610088578063469048401461010457806347ccca021461013b5780637b1039991461015a575b5f5ffd5b348015610093575f5ffd5b506100d56100a2366004610a64565b60046020525f9081526040902080546001820154600283015460039093015491926001600160a01b039091169160ff1684565b604080519485526001600160a01b03909316602085015291830152151560608201526080015b60405180910390f35b34801561010f575f5ffd5b50600354610123906001600160a01b031681565b6040516001600160a01b0390911681526020016100fb565b348015610146575f5ffd5b50600154610123906001600160a01b031681565b348015610165575f5ffd5b505f54610123906001600160a01b031681565b348015610183575f5ffd5b50610202610192366004610a64565b60408051608080820183525f8083526020808401829052838501829052606093840182905294815260048552839020835191820184528054825260018101546001600160a01b03169482019490945260028401549281019290925260039092015460ff1615159181019190915290565b6040516100fb9190815181526020808301516001600160a01b0316908201526040808301519082015260609182015115159181019190915260800190565b34801561024b575f5ffd5b5061025f61025a366004610b11565b6102b6565b005b34801561026c575f5ffd5b5061027660025481565b6040519081526020016100fb565b34801561028f575f5ffd5b5061025f61029e366004610a64565b610624565b61025f6102b1366004610a64565b6107f0565b5f828152600460208190526040808320835491516332665ffb60e01b815292830186905292916001600160a01b03909116906332665ffb906024015f60405180830381865afa15801561030b573d5f5f3e3d5ffd5b505050506040513d5f823e601f3d908101601f191682016040526103329190810190610c0c565b60018301549091506001600160a01b03166103865760405162461bcd60e51b815260206004820152600f60248201526e139bc8195cd8dc9bddc8199bdd5b99608a1b60448201526064015b60405180910390fd5b600382015460ff16156103cf5760405162461bcd60e51b8152602060048201526011602482015270105b1c9958591e4818dbdb5c1b195d1959607a1b604482015260640161037d565b80608001516001600160a01b0316336001600160a01b031614806103ff575060018201546001600160a01b031633145b61043c5760405162461bcd60e51b815260206004820152600e60248201526d139bdd08185d5d1a1bdc9a5e995960921b604482015260640161037d565b60038201805460ff1916600117905560028054908301545f916064916104629190610d04565b61046c9190610d21565b90505f81846002015461047f9190610d40565b60808401516040519192506001600160a01b03169082156108fc029083905f818181858888f193505050501580156104b9573d5f5f3e3d5ffd5b506003546040516001600160a01b039091169083156108fc029084905f818181858888f193505050501580156104f1573d5f5f3e3d5ffd5b506001805490850154604051632151da2760e01b81526001600160a01b0392831692632151da279261052c929116908a908a90600401610d53565b6020604051808303815f875af1158015610548573d5f5f3e3d5ffd5b505050506040513d601f19601f8201168201806040525081019061056c9190610d9e565b505f5460018501546040516329507f7360e01b8152600481018990526001600160a01b0391821660248201529116906329507f73906044015f604051808303815f87803b1580156105bb575f5ffd5b505af11580156105cd573d5f5f3e3d5ffd5b50505050600184015460028501546040519081526001600160a01b039091169087907feaa0b3bd2d2b8f1ec500812be411e759ca63e36ab996d88f59d3076f634f095a9060200160405180910390a3505050505050565b5f818152600460208190526040808320835491516332665ffb60e01b815292830185905292916001600160a01b03909116906332665ffb906024015f60405180830381865afa158015610679573d5f5f3e3d5ffd5b505050506040513d5f823e601f3d908101601f191682016040526106a09190810190610c0c565b905080608001516001600160a01b0316336001600160a01b031614806106d2575060018201546001600160a01b031633145b61070f5760405162461bcd60e51b815260206004820152600e60248201526d139bdd08185d5d1a1bdc9a5e995960921b604482015260640161037d565b600382015460ff16156107585760405162461bcd60e51b8152602060048201526011602482015270105b1c9958591e4818dbdb5c1b195d1959607a1b604482015260640161037d565b6002820180545f9182905560038401805460ff1916600190811790915584015460405191926001600160a01b039091169183156108fc0291849190818181858888f193505050501580156107ae573d5f5f3e3d5ffd5b5060018301546040516001600160a01b039091169085907fd9e530acb8429c8e5337d9d3230e4cc7d742e32c2fc8d76608c19f2e1701ed04905f90a350505050565b5f80546040516332665ffb60e01b8152600481018490526001600160a01b03909116906332665ffb906024015f60405180830381865afa158015610836573d5f5f3e3d5ffd5b505050506040513d5f823e601f3d908101601f1916820160405261085d9190810190610c0c565b90508060a0015161089f5760405162461bcd60e51b815260206004820152600c60248201526b4e6f7420666f722073616c6560a01b604482015260640161037d565b336001600160a01b031681608001516001600160a01b0316036109045760405162461bcd60e51b815260206004820152601c60248201527f43616e6e6f742062757920796f7572206f776e2070726f706572747900000000604482015260640161037d565b80606001513410156109585760405162461bcd60e51b815260206004820152601760248201527f496e73756666696369656e74204d415449432073656e74000000000000000000604482015260640161037d565b5f8281526004602052604090206003015460ff16156109b95760405162461bcd60e51b815260206004820152601860248201527f53616c6520616c726561647920696e2070726f67726573730000000000000000604482015260640161037d565b60408051608081018252838152336020808301828152348486018181525f606087018181528a825260048652908890209651875592516001870180546001600160a01b0319166001600160a01b0390921691909117905551600286015590516003909401805460ff19169415159490941790935592519182529184917f8c588d07beaca707a91422b3b2af046aeeea679dc0560ee518510fd686dfa725910160405180910390a35050565b5f60208284031215610a74575f5ffd5b5035919050565b634e487b7160e01b5f52604160045260245ffd5b604051610100810167ffffffffffffffff81118282101715610ab357610ab3610a7b565b60405290565b604051601f8201601f1916810167ffffffffffffffff81118282101715610ae257610ae2610a7b565b604052919050565b5f67ffffffffffffffff821115610b0357610b03610a7b565b50601f01601f191660200190565b5f5f60408385031215610b22575f5ffd5b82359150602083013567ffffffffffffffff811115610b3f575f5ffd5b8301601f81018513610b4f575f5ffd5b8035610b62610b5d82610aea565b610ab9565b818152866020838501011115610b76575f5ffd5b816020840160208301375f602083830101528093505050509250929050565b5f82601f830112610ba4575f5ffd5b8151610bb2610b5d82610aea565b818152846020838601011115610bc6575f5ffd5b8160208501602083015e5f918101602001919091529392505050565b80516001600160a01b0381168114610bf8575f5ffd5b919050565b80518015158114610bf8575f5ffd5b5f60208284031215610c1c575f5ffd5b815167ffffffffffffffff811115610c32575f5ffd5b82016101008185031215610c44575f5ffd5b610c4c610a8f565b81518152602082015167ffffffffffffffff811115610c69575f5ffd5b610c7586828501610b95565b6020830152506040828101519082015260608083015190820152610c9b60808301610be2565b6080820152610cac60a08301610bfd565b60a082015260c082015167ffffffffffffffff811115610cca575f5ffd5b610cd686828501610b95565b60c08301525060e091820151918101919091529392505050565b634e487b7160e01b5f52601160045260245ffd5b8082028115828204841417610d1b57610d1b610cf0565b92915050565b5f82610d3b57634e487b7160e01b5f52601260045260245ffd5b500490565b81810381811115610d1b57610d1b610cf0565b60018060a01b0384168152826020820152606060408201525f82518060608401528060208501608085015e5f608082850101526080601f19601f830116840101915050949350505050565b5f60208284031215610dae575f5ffd5b505191905056fea2646970667358221220d1599fef39ed5c280684ad4f5a886ac686a62307666c063631da736a2d4b4bda64736f6c634300081c0033",
  "linkReferences": {},
  "deployedLinkReferences": {},
  "immutableReferences": {},
  "inputSourceName": "project/contracts/Marketplace.sol",
  "buildInfoId": "solc-0_8_28-ce0b873a36f6b981109ecbdde7e2a9d9f8a6ca64"
}